0211724050137432020010100004+38850-077033FM-12+002099999V0203101N005119999999N016000199+01061-00111100611ADDGA1999+022501999GE19MSL   +99999+99999GF108991999999022501999999KA1120M+01221KA2120N+00671MA1999999100391MD1310101+9999REMSYN08072405 32866 83110 10106 21011 30039 40061 53010 92352 333 10122 20067 555 90100=
0216724050137432020010100527+38847-077035FM-15+0020KDCA V0303205N00465024385MN0160935N5+00945-00175100645ADDAA101000095GA1085+024385999GD14991+0243859GE19MSL   +99999+99999GF199999999999024381999999MA1100645100405REMMET09912/31/19 19:52:03 METAR KDCA 010052Z 32009KT 10SM OVC080 09/M02 A2972 RMK AO2 SLP064 T00941017 (JV)
0216724050137432020010101527+38847-077035FM-15+0020KDCA V0303205N00415022865MN0160935N5+00835-00175100695ADDAA101000095GA1075+022865999GD13991+0228659GE19MSL   +99999+99999GF199999999999022861999999MA1100715100475REMMET09912/31/19 20:52:03 METAR KDCA 010152Z 32008KT 10SM BKN075 08/M02 A2974 RMK AO2 SLP069 T00831017 (JV)
0266724050137432020010102527+38847-077035FM-15+0020KDCA V0303205N007252200059N0160935N5+00785-00225100715ADDAA101000095GA1045+022865999GD12991+0228659GE19AGL   +99999+99999GF104995999999022861999999MA1100715100475MD1190109+9999OC101035REMMET10812/31/19 21:52:03 METAR KDCA 010252Z 32014G20KT 10SM SCT075 08/M02 A2974 RMK AO2 SLP071 T00781022 51010 (JV)EQDD01      0ADE726
0193724050137432020010103004+38850-077033FM-12+002099999V0203201N007212200019N016000199+00781-00221100711ADDGA1999+022501999GE19MSL   +99999+99999GF104991999999022501999999MA1999999100491MD1110101+9999OD149901031999REMSYN07472405 32866 43214 10078 21022 30049 40071 51010 90252 333 91020 555 90103=
0217724050137432020010103527+38847-077035FM-15+0020KDCA V0303205N00515021345MN0160935N5+00725-00175100765ADDAA101000095GA1075+021345999GD13991+0213459GE19MSL   +99999+99999GF199999999999021341999999MA1100785100545REMMET10012/31/19 22:52:03 METAR KDCA 010352Z 32010KT 10SM BKN070 07/M02 A2976 RMK AO2 SLP076 T00721017 (JDH)
0253724050137432020010104527+38847-077035FM-15+0020KDCA V0303205N00625018295MN0160935N5+00725-00225100755ADDAA101000095GA1075+018295999GD13991+0182959GE19MSL   +99999+99999GF199999999999018291999999KA1240M+01221KA2240N+00611MA1100755100515REMMET11012/31/19 23:52:03 METAR KDCA 010452Z 32012KT 10SM BKN060 07/M02 A2975 RMK AO2 SLP075 T00721022 401220061 (JDH)
0994724050137432020010104596+38847-077035SOD  +0020KDCA V030999999999999999999999999999+99999+99999999999ADDAA124000095AJ100009599999999AN1024000095AX1015245KA1240M+01225KA2240N+00615KG1024W+0061D4KG2024D+0022D4MF1100414100684MG1100414100474OE11240116221099995OE22240089425099995OE33240037699999995RH1024X093D4RH2024N041D4RH3024M067D4REMSOD75624 HR PRECIPITATION (IN): 0.00 SNOW DEPTH (IN):0     24 HR SNOWFALL (IN):0.0  WEATHER(CODE):1  24 HR MAX TEMP (F): 5424 HR MIN TEMP (F): 43AVERAGE STATION PRESSURE:29.650 MINIMUM SEA LEVEL PRESSURE:29.67 TIME OF OCCURRENCE:1542 PEAK WIND SPEED (MPH): 26 PEAK WIND DIR (DEG):210 PEAK WIND TIME (LST):      FASTEST 2MIN SPEED (MPH): 20FASTEST 2MIN DIR (DEG):250 FASTEST 2MIN TIME (LST):     AVERAGE WIND SPEED (MPH): 8.4 24 HR AVG TEMP (F): 49DEPART FROM NORMAL: 13  HEATING DEGREE DAYS: 16 COOLING DEGREE DAYS:  0 LATEST DAY MAX TEMP (0700-1900 LST):54  LATEST NIGHT MIN TEMP(1900-0800 LST):43 HOURLY INCREMENTAL PRECIPITATION VALUES (IN):.00 0.00 0.00 0.00 0.00 0.00 0.00 0.00 0.00 0.00 0.00 0.00 0.00 0.00 0.00 0.00 0.00 0.00 0.00 0.00 0.00 0.00 0.00 0.00
1292724050137432020010104596+38847-077035SOM  +0020KDCA V030999999999999999999999999999+99999+99999999999ADDAB1008339AAD1001919090999999999UAE1125095035005AH1005001092917265AH2010001890913175AH3015002590913175AH4020003390913175AH5030004190913255AH6045005390913255AI1060006490913255AI2080006990913445AI3100007690913255AI4120008690914305AI5150009790915105AI6180011990915435AK100002169999IAM100089111199999999IAN102400109IKB1744N+01615KB2744M+09675KB3744A+0561UKC1N9-00551999995KC2M9+01942899995KD1744H06985KD2744C00005KE100U00U10U00UMH110163U10186UMK110417121052U09925141152UREMSOM796PCP MTOT:3.28 PCP GT 24HRS:0.75 DATE(S):9-10+ DAYS W/PCP >=.01:12 DAYS W/PCP >=.10:9  DAYS W/ PCP >=.50:3 DAYS W/PCP >=1.00:0 MSDP AMTS W/DATE-TIME TAGS:MIN:5 0.04  29/1726 MIN:10 0.07  09/1317 MIN:15 0.10  09/1317 MIN:20 0.13  09/1317 MIN:30 0.16  09/1325 MIN:45 0.21  09/1325 MIN:60 0.25  09/1325 MIN:80 0.27  09/1344 MIN:100 0.30  09/1325 MIN:120 0.34  09/1430 MIN:150 0.38  09/1510 MIN:180 0.47  09/1543 AVG DLY MIN:34.9  AVG DLY MAX:49.4  AVG MLY TMP:42.2  MIN TMP:22 DATE(S):19 MAX TMP:67  DATE(S):28 DAYS MAX <=32:0 DAYS MAX >=90:0  DAYS MIN <=32:10 DAYS MIN  <=0:0  AVG STP:30.015 LWST SLP:29.30 DATE/TIME:141150 HGST SLP:30.77 DATE/TIME:121057 HDD MTH TOT:698 DEP NORM:-2553 SEASON(JUL 1-JUN 30):1344 DEP NORM:-25536 CDD MTH TOT:0 DEP NORM:-2553 SEASON(JAN 1-DEC 31):2066 DEP NORM:-25536EQDR01  3.287ABP070
0269724050137432020010105527+38847-077035FM-15+0020KDCA V0303405N00365018295MN0160935N5+00675-00175100785ADDAA101000095GA1085+018295999GD14991+0182959GE19MSL   +99999+99999GF199999999999018291999999KA1060M+01061KA2060N+00671MA1100785100545MD1190079+9999REMMET11201/01/20 00:52:02 METAR KDCA 010552Z 34007KT 10SM OVC060 07/M02 A2976 RMK AO2 SLP078 T00671017 10106 20067 51007
0211724050137432020010106004+38850-077033FM-12+002099999V0203401N003619999999N016000199+00671-00171100781ADDGA1999+017501999GE19MSL   +99999+99999GF108991999999017501999999KA1240M+01171KA2240N+00671MA1999999100561MD1110071+9999REMSYN08072405 32766 83407 10067 21017 30056 40078 51007 90552 333 10117 20067 555 90106=
0211724050137432020010106527+38847-077035FM-15+0020KDCA V0303205N00415016765MN0160935N5+00615-00175100845ADDAA101000095GA1085+016765999GD14991+0167659GE19MSL   +99999+99999GF199999999999016761999999MA1100855100615REMMET09401/01/20 01:52:02 METAR KDCA 010652Z 32008KT 10SM OVC055 06/M02 A2978 RMK AO2 SLP084 T00611017
0211724050137432020010107527+38847-077035FM-15+0020KDCA V0303205N00415018295MN0160935N5+00615-00225100865ADDAA101000095GA1075+018295999GD13991+0182959GE19MSL   +99999+99999GF199999999999018291999999MA1100885100645REMMET09401/01/20 02:52:02 METAR KDCA 010752Z 32008KT 10SM BKN060 06/M02 A2979 RMK AO2 SLP086 T00611022
0231724050137432020010108527+38847-077035FM-15+0020KDCA V0303305N00465018295MN0160935N5+00565-00285100885ADDAA101000095GA1075+018295999GD13991+0182959GE19MSL   +99999+99999GF199999999999018291999999MA1100885100645MD1190109+9999REMMET10001/01/20 03:52:02 METAR KDCA 010852Z 33009KT 10SM BKN060 06/M03 A2979 RMK AO2 SLP088 T00561028 51010
0169724050137432020010109004+38850-077033FM-12+002099999V0203301N004619999999N016000199+00561-00281100881ADDGA1999+017501999GE19MSL   +99999+99999GF106991999999017501999999MA1999999100661MD1110101+9999REMSYN06472405 32766 63309 10056 21028 30066 40088 51010 90852 555 90109=
0287724050137432020010109527+38847-077035FM-15+0020KDCA V0303405N00315018295MN0160935N5+00505-00285100895ADDAA101000095GA1075+018295999GA2075+042675999GA3085+076205999GD13991+0182959GD23991+0426759GD34991+0762059GE19MSL   +99999+99999GF199999999999018291999999MA1100915100675REMMET10801/01/20 04:52:02 METAR KDCA 010952Z 34006KT 10SM BKN060 BKN140 OVC250 05/M03 A2980 RMK AO2 SLP089 T00501028
0287724050137432020010110527+38847-077035FM-15+0020KDCA V0303005N00315018295MN0160935N5+00565-00285100935ADDAA101000095GA1075+018295999GA2075+042675999GA3085+076205999GD13991+0182959GD23991+0426759GD34991+0762059GE19MSL   +99999+99999GF199999999999018291999999MA1100955100715REMMET10801/01/20 05:52:02 METAR KDCA 011052Z 30006KT 10SM BKN060 BKN140 OVC250 06/M03 A2981 RMK AO2 SLP093 T00561028
0269724050137432020010111527+38847-077035FM-15+0020KDCA V0303105N00315018295MN0160935N5+00505-00335100965ADDAA101000095GA1075+018295999GD13991+0182959GE19MSL   +99999+99999GF199999999999018291999999KA1060M+00671KA2060N+00501MA1100985100745MD1390089+9999REMMET11201/01/20 06:52:02 METAR KDCA 011152Z 31006KT 10SM BKN060 05/M03 A2982 RMK AO2 SLP096 T00501033 10067 20050 53008
0211724050137432020010112004+38850-077033FM-12+002099999V0203101N003119999999N016000199+00501-00331100961ADDGA1999+017501999GE19MSL   +99999+99999GF106991999999017501999999KA1240M+01221KA2240N+00501MA1999999100761MD1310081+9999REMSYN08072405 32766 63106 10050 21033 30076 40096 53008 91152 333 10122 20050 555 90112=
0230724050137432020010112527+38847-077035FM-15+0020KDCA V0303005N002652200059N0160935N5+00565-00335101025ADDAA101000095GA1045+018295999GD12991+0182959GE19AGL   +99999+99999GF104995999999018291999999MA1101025100785REMMET09401/01/20 07:52:02 METAR KDCA 011252Z 30005KT 10SM SCT060 06/M03 A2983 RMK AO2 SLP102 T00561033EQDD01      0ADE726
0230724050137432020010113527+38847-077035FM-15+0020KDCA V0302805N002652200059N0160935N5+00675-00335101115ADDAA101000095GA1025+018295999GD11991+0182959GE19AGL   +99999+99999GF102995999999018291999999MA1101125100885REMMET09401/01/20 08:52:02 METAR KDCA 011352Z 28005KT 10SM FEW060 07/M03 A2986 RMK AO2 SLP111 T00671033EQDD01      0ADE726
0250724050137432020010114527+38847-077035FM-15+0020KDCA V0303005N005752200059N0160935N5+00725-00395101195ADDAA101000095GA1025+018295999GD11991+0182959GE19AGL   +99999+99999GF102995999999018291999999MA1101195100955MD1390229+9999REMMET10001/01/20 09:52:02 METAR KDCA 011452Z 30011KT 10SM FEW060 07/M04 A2988 RMK AO2 SLP119 T00721039 53022EQDD01      0ADE726
0169724050137432020010115004+38850-077033FM-12+002099999V0203001N005712200019N016000199+00721-00391101191ADDGA1999+017501999GE19MSL   +99999+99999GF102991999999017501999999MA1999999100961MD1310221+9999REMSYN06472405 32766 23011 10072 21039 30096 40119 53022 91452 555 90115=
0230724050137432020010115527+38847-077035FM-15+0020KDCA V0302805N005152200059N0160935N5+00835-00505101195ADDAA101000095GA1025+018295999GD11991+0182959GE19AGL   +99999+99999GF102995999999018291999999MA1101195100955REMMET09401/01/20 10:52:02 METAR KDCA 011552Z 28010KT 10SM FEW060 08/M05 A2988 RMK AO2 SLP119 T00831050EQDD01      0ADE726
0230724050137432020010116527+38847-077035FM-15+0020KDCA V0302605N006252200059N0160935N5+00895-00445101125ADDAA101000095GA1025+018295999GD11991+0182959GE19AGL   +99999+99999GF102995999999018291999999MA1101125100885REMMET09401/01/20 11:52:02 METAR KDCA 011652Z 26012KT 10SM FEW060 09/M04 A2986 RMK AO2 SLP112 T00891044EQDD01      0ADE726
0288724050137432020010117527+38847-077035FM-15+0020KDCA V0302605N006752200059N0160935N5+00945-00445101055ADDAA101000095GA1025+018295999GD11991+0182959GE19AGL   +99999+99999GF102995999999018291999999KA1060M+00941KA2060N+00501MA1101055100815MD1890149+9999REMMET11201/01/20 12:52:02 METAR KDCA 011752Z 26013KT 10SM FEW060 09/M04 A2984 RMK AO2 SLP105 T00941044 10094 20050 58014EQDD01      0ADE726
0211724050137432020010118004+38850-077033FM-12+002099999V0202601N006712200019N016000199+00941-00441101051ADDGA1999+017501999GE19MSL   +99999+99999GF102991999999017501999999KA1120M+00941KA2120N+00501MA1999999100831MD1810141+9999REMSYN08072405 32766 22613 10094 21044 30083 40105 58014 91752 333 10094 20050 555 90118=
0230724050137432020010118527+38847-077035FM-15+0020KDCA V0302705N004652200059N0160935N5+01005-00445101035ADDAA101000095GA1025+018295999GD11991+0182959GE19AGL   +99999+99999GF102995999999018291999999MA1101055100815REMMET09401/01/20 13:52:02 METAR KDCA 011852Z 27009KT 10SM FEW060 10/M04 A2984 RMK AO2 SLP103 T01001044EQDD01      0ADE726
0241724050137432020010119527+38847-077035FM-15+0020KDCA V0302805N003652200059N0160935N5+01065-00565101035ADDAA101000095GA1025+019815999GD11991+0198159GE19AGL   +99999+99999GF102995999999019811999999MA1101055100815OC100935REMMET09701/01/20 14:52:02 METAR KDCA 011952Z 28007G18KT 10SM FEW065 11/M06 A2984 RMK AO2 SLP103 T01061056EQDD01      0ADE726
0250724050137432020010120527+38847-077035FM-15+0020KDCA V0302905N005152200059N0160935N5+01065-00615101125ADDAA101000095GA1025+021345999GD11991+0213459GE19AGL   +99999+99999GF102995999999021341999999MA1101125100885MD1390079+9999REMMET10001/01/20 15:52:02 METAR KDCA 012052Z 29010KT 10SM FEW070 11/M06 A2986 RMK AO2 SLP112 T01061061 53007EQDD01      0ADE726
0169724050137432020010121004+38850-077033FM-12+002099999V0202901N005112200019N016000199+01061-00611101121ADDGA1999+022501999GE19MSL   +99999+99999GF102991999999022501999999MA1999999100901MD1310071+9999REMSYN06472405 32866 22910 10106 21061 30090 40112 53007 92052 555 90121=
0230724050137432020010121527+38847-077035FM-15+0020KDCA V0303005N004152200059N0160935N5+00895-00675101205ADDAA101000095GA1025+022865999GD11991+0228659GE19AGL   +99999+99999GF102995999999022861999999MA1101225100985REMMET09401/01/20 16:52:02 METAR KDCA 012152Z 30008KT 10SM FEW075 09/M07 A2989 RMK AO2 SLP120 T00891067EQDD01      0ADE726
0191724050137432020010122527+38847-077035FM-15+0020KDCA V0303005N003152200059N0160935N5+00835-00725101265ADDAA101000095GA1005+999999999GD10991+9999999GF100991999999999999999999MA1101255101015REMMET09601/01/20 17:52:02 METAR KDCA 012252Z 30006KT 10SM CLR 08/M07 A2990 RMK AO2 SLP126 T00831072 (JV)
0249724050137432020010123527+38847-077035FM-15+0020KDCA V0303205N002652200059N0160935N5+00725-00675101315ADDAA101000095GA1005+999999999GD10991+9999999GF100991999999999999999999KA1060M+01061KA2060N+00611MA1101325101085MD1190199+9999REMMET11401/01/20 18:52:02 METAR KDCA 012352Z 32005KT 10SM CLR 07/M07 A2992 RMK AO2 SLP131 T00721067 10106 20061 51019 (JV)
0186724050137432020010200527+38847-077035FM-15+0020KDCA V0309999C000052200059N0160935N5+00615-00675101395ADDAA101000095GA1005+999999999GD10991+9999999GF100991999999999999999999MA1101395101155REMMET09101/01/20 19:52:01 METAR KDCA 020052Z 00000KT 10SM CLR 06/M07 A2994 RMK AO2 SLP139 T00611067
0186724050137432020010201527+38847-077035FM-15+0020KDCA V0303205N002152200059N0160935N5+00675-00675101415ADDAA101000095GA1005+999999999GD10991+9999999GF100991999999999999999999MA1101425101185REMMET09101/01/20 20:52:01 METAR KDCA 020152Z 32004KT 10SM CLR 07/M07 A2995 RMK AO2 SLP141 T00671067
0206724050137432020010202527+38847-077035FM-15+0020KDCA V0301605N001552200059N0160935N5+00445-00395101435ADDAA101000095GA1005+999999999GD10991+9999999GF100991999999999999999999MA1101465101225MD1190139+9999REMMET09701/01/20 21:52:01 METAR KDCA 020252Z 16003KT 10SM CLR 04/M04 A2996 RMK AO2 SLP143 T00441039 51013
0105724050137432020010203004+38850-077033FM-12+002099999V0201601N001519999999N016000199+00441-00391101431ADDMA1999999101231MD1110131+9999REMSYN06472405 32966 01603 10044 21039 30123 40143 51013 90252 555 90203=
0186724050137432020010203527+38847-077035FM-15+0020KDCA V0302305N002152200059N0160935N5+00285-00285101445ADDAA101000095GA1005+999999999GD10991+9999999GF100991999999999999999999MA1101465101225REMMET09101/01/20 22:52:01 METAR KDCA 020352Z 23004KT 10SM CLR 03/M03 A2996 RMK AO2 SLP144 T00281028
0222724050137432020010204527+38847-077035FM-15+0020KDCA V0302005N002652200059N0160935N5+00285-00115101445ADDAA101000095GA1005+999999999GD10991+9999999GF100991999999999999999999KA1240M+01061KA2240N+00171MA1101465101225REMMET10101/01/20 23:52:02 METAR KDCA 020452Z 20005KT 10SM CLR 03/M01 A2996 RMK AO2 SLP144 T00281011 401060017
0972724050137432020010204596+38847-077035SOD  +0020KDCA V030999999999999999999999999999+99999+99999999999ADDAA124000095AJ100009599999999AN1024000095KA1240M+01065KA2240N+00175KG1024W+0028D4KG2024D-0039D4MF1100884101124MG1100894100754OE11240116231099995OE22240089434099995OE33240035899999995RH1024X076D4RH2024N031D4RH3024M047D4REMSOD74324 HR PRECIPITATION (IN): 0.00 SNOW DEPTH (IN):0     24 HR SNOWFALL (IN):0.0  24 HR MAX TEMP (F): 5124 HR MIN TEMP (F): 35AVERAGE STATION PRESSURE(D):29.793 MINIMUM SEA LEVEL PRESSURE:29.75 TIME OF OCCURRENCE:0038 PEAK WIND SPEED (MPH): 26 PEAK WIND DIR (DEG):310 PEAK WIND TIME (LST):      FASTEST 2MIN SPEED (MPH): 20FASTEST 2MIN DIR (DEG):340 FASTEST 2MIN TIME (LST):     AVERAGE WIND SPEED (MPH): 8.0 24 HR AVG TEMP (F): 43DEPART FROM NORMAL:  7  HEATING DEGREE DAYS: 22 COOLING DEGREE DAYS:  0 LATEST DAY MAX TEMP (0700-1900 LST): 51 LATEST NIGHT MIN TEMP(1900-0800 LST):41 HOURLY INCREMENTAL PRECIPITATION VALUES (IN):0.00 0.00 0.00 0.00 0.00 0.00 0.00 0.00 0.00 0.00 0.00 0.00 0.00 0.00 0.00 0.00 0.00 0.00 0.00 0.00 0.00 0.00 0.00 0.00
0294724050137432020010205527+38847-077035FM-15+0020KDCA V0302305N002652200059N0160935N5+00115-00285101455ADDAA101000095GA1045+076205999GD12991+0762059GE19AGL   +99999+99999GF104995999999076201999999KA1060M+00781KA2060N+00111MA1101465101225MD1190019+9999REMMET11801/02/20 00:52:02 METAR KDCA 020552Z 23005KT 10SM SCT250 01/M03 A2996 RMK AO2 SLP145 T00111028 10078 20011 51001 (JDH)EQDD01      0ADE726
0195724050137432020010206004+38850-077033FM-12+002099999V0202301N002612200019N016000199+00111-00281101451ADDGE19MSL   +99999+99999GF104991999999999999999999KA1240M+00781KA2240N+00111MA1999999101231MD1110011+9999REMSYN08072405 32966 42305 10011 21028 30123 40145 51001 90552 333 10078 20011 555 90206=
0217724050137432020010206527+38847-077035FM-15+0020KDCA V0309999C00005076205MN0160935N5+00175-00285101495ADDAA101000095GA1075+076205999GD13991+0762059GE19MSL   +99999+99999GF199999999999076201999999MA1101495101255REMMET10001/02/20 01:52:02 METAR KDCA 020652Z 00000KT 10SM BKN250 02/M03 A2997 RMK AO2 SLP149 T00171028 (JDH)
0217724050137432020010207527+38847-077035FM-15+0020KDCA V0309999C00005076205MN0160935N5+00065-00335101525ADDAA101000095GA1075+076205999GD13991+0762059GE19MSL   +99999+99999GF199999999999076201999999MA1101525101285REMMET10001/02/20 02:52:02 METAR KDCA 020752Z 00000KT 10SM BKN250 01/M03 A2998 RMK AO2 SLP152 T00061033 (JDH)
0237724050137432020010208527+38847-077035FM-15+0020KDCA V0302405N00215076205MN0160935N5+00115-00285101505ADDAA101000095GA1075+076205999GD13991+0762059GE19MSL   +99999+99999GF199999999999076201999999MA1101525101285MD1090059+9999REMMET10601/02/20 03:52:02 METAR KDCA 020852Z 24004KT 10SM BKN250 01/M03 A2998 RMK AO2 SLP150 T00111028 50005 (JDH)
0153724050137432020010209004+38850-077033FM-12+002099999V0202401N002119999999N016000199+00111-00281101501ADDGE19MSL   +99999+99999GF106991999999999999999999MA1999999101301MD1990051+9999REMSYN06472405 32966 62404 10011 21028 30130 40150 50005 90852 555 90209=
0217724050137432020010209527+38847-077035FM-15+0020KDCA V0309999C00005076205MN0160935N5+00175-00175101515ADDAA101000095GA1075+076205999GD13991+0762059GE19MSL   +99999+99999GF199999999999076201999999MA1101525101285REMMET10001/02/20 04:52:02 METAR KDCA 020952Z 00000KT 10SM BKN250 02/M02 A2998 RMK AO2 SLP151 T00171017 (JDH)
0217724050137432020010210527+38847-077035FM-15+0020KDCA V0309999C00005076205MN0160935N5+00065-00285101575ADDAA101000095GA1075+076205999GD13991+0762059GE19MSL   +99999+99999GF199999999999076201999999MA1101595101355REMMET10001/02/20 05:52:02 METAR KDCA 021052Z 00000KT 10SM BKN250 01/M03 A3000 RMK AO2 SLP157 T00061028 (JDH)
0313724050137432020010211527+38847-077035FM-15+0020KDCA V0309999C00005076205MN0160935N5+00065-00225101605ADDAA101000095GA1025+042675999GA2075+076205999GD11991+0426759GD23991+0762059GE19MSL   +99999+99999GF199999999999042671999999KA1060M+00171KA2060N+00001MA1101635101385MD1390109+9999REMMET12501/02/20 06:52:02 METAR KDCA 021152Z 00000KT 10SM FEW140 BKN250 01/M02 A3001 RMK AO2 SLP160 T00061022 10017 20000 53010 (BGS)
0195724050137432020010212004+38850-077033FM-12+002099999V0209999C000019999999N016000199+00061-00221101601ADDGE19MSL   +99999+99999GF106991999999999999999999KA1240M+01061KA2240N+00001MA1999999101401MD1310101+9999REMSYN08072405 32966 60000 10006 21022 30140 40160 53010 91152 333 10106 20000 555 90212=
0255724050137432020010212527+38847-077035FM-15+0020KDCA V0302105N00155076205MN0160935N5+00065-00225101625ADDAA101000095GA1025+030485999GA2075+076205999GD11991+0304859GD23991+0762059GE19MSL   +99999+99999GF199999999999030481999999MA1101635101385REMMET10701/02/20 07:52:02 METAR KDCA 021252Z 21003KT 10SM FEW100 BKN250 01/M02 A3001 RMK AO2 SLP162 T00061022 (BGS)
0255724050137432020010213527+38847-077035FM-15+0020KDCA V0301805N00155076205MN0160935N5+00175-00065101695ADDAA101000095GA1025+030485999GA2075+076205999GD11991+0304859GD23991+0762059GE19MSL   +99999+99999GF199999999999030481999999MA1101695101455REMMET10701/02/20 08:52:02 METAR KDCA 021352Z 18003KT 10SM FEW100 BKN250 02/M01 A3003 RMK AO2 SLP169 T00171006 (BGS)
0236724050137432020010214527+38847-077035FM-15+0020KDCA V0301705N00265076205MN0160935N5+00335+00065101675ADDAA101000095GA1075+076205999GD13991+0762059GE19MSL   +99999+99999GF199999999999076201999999MA1101695101455MD1090079+9999REMMET10501/02/20 09:52:02 METAR KDCA 021452Z 17005KT 10SM BKN250 03/01 A3003 RMK AO2 SLP167 T00330006 50007 (BGS)
0153724050137432020010215004+38850-077033FM-12+002099999V0201701N002619999999N016000199+00331+00061101671ADDGE19MSL   +99999+99999GF106991999999999999999999MA1999999101471MD1990071+9999REMSYN06472405 32966 61705 10033 20006 30147 40167 50007 91452 555 90215=
0216724050137432020010215527+38847-077035FM-15+0020KDCA V0301605N00415076205MN0160935N5+00445+00115101615ADDAA101000095GA1075+076205999GD13991+0762059GE19MSL   +99999+99999GF199999999999076201999999MA1101635101385REMMET09901/02/20 10:52:02 METAR KDCA 021552Z 16008KT 10SM BKN250 04/01 A3001 RMK AO2 SLP161 T00440011 (BGS)
0216724050137432020010216527+38847-077035FM-15+0020KDCA V0301705N00415076205MN0160935N5+00675+00115101505ADDAA101000095GA1075+076205999GD13991+0762059GE19MSL   +99999+99999GF199999999999076201999999MA1101495101255REMMET09901/02/20 11:52:02 METAR KDCA 021652Z 17008KT 10SM BKN250 07/01 A2997 RMK AO2 SLP150 T00670011 (BGS)
0312724050137432020010217527+38847-077035FM-15+0020KDCA V0301605N00315076205MN0160935N5+00835+00065101395ADDAA101000095GA1025+045725999GA2075+076205999GD11991+0457259GD23991+0762059GE19MSL   +99999+99999GF199999999999045721999999KA1060M+00831KA2060N+00001MA1101395101155MD1890289+9999REMMET12401/02/20 12:52:02 METAR KDCA 021752Z 16006KT 10SM FEW150 BKN250 08/01 A2994 RMK AO2 SLP139 T00830006 10083 20000 58028 (BGS)
0195724050137432020010218004+38850-077033FM-12+002099999V0201601N003119999999N016000199+00831+00061101391ADDGE19MSL   +99999+99999GF106991999999999999999999KA1120M+00831KA2120N+00001MA1999999101171MD1810281+9999REMSYN08072405 32966 61606 10083 20006 30117 40139 58028 91752 333 10083 20000 555 90218=
0254724050137432020010218527+38847-077035FM-15+0020KDCA V0301705N00315076205MN0160935N5+01005+00175101355ADDAA101000095GA1045+036585999GA2085+076205999GD12991+0365859GD24991+0762059GE19MSL   +99999+99999GF199999999999036581999999MA1101355101115REMMET10601/02/20 13:52:02 METAR KDCA 021852Z 17006KT 10SM SCT120 OVC250 10/02 A2993 RMK AO2 SLP135 T01000017 (BGS)
0253724050137432020010219527+38847-077035FM-15+0020KDCA V0301705N00265067065MN0160935N5+01065+00065101315ADDAA101000095GA1025+036585999GA2075+067065999GD11991+0365859GD23991+0670659GE19MSL   +99999+99999GF199999999999036581999999MA1101325101085REMMET10501/02/20 14:52:02 METAR KDCA 021952Z 17005KT 10SM FEW120 BKN220 11/01 A2992 RMK AO2 SLP131 T01060006 (JV)
0273724050137432020010220527+38847-077035FM-15+0020KDCA V0301505N00155073155MN0160935N5+01005+00065101375ADDAA101000095GA1025+039625999GA2075+073155999GD11991+0396259GD23991+0731559GE19MSL   +99999+99999GF199999999999039621999999MA1101395101155MD1590029+9999REMMET11101/02/20 15:52:02 METAR KDCA 022052Z 15003KT 10SM FEW130 BKN240 10/01 A2994 RMK AO2 SLP137 T01000006 55002 (JV)
0153724050137432020010221004+38850-077033FM-12+002099999V0201501N001519999999N016000199+01001+00061101371ADDGE19MSL   +99999+99999GF106991999999999999999999MA1999999101171MD1510021+9999REMSYN06472405 32966 61503 10100 20006 30117 40137 55002 92052 555 90221=
0253724050137432020010221527+38847-077035FM-15+0020KDCA V0301605N00215067065MN0160935N5+00945+00175101325ADDAA101000095GA1025+042675999GA2075+067065999GD11991+0426759GD23991+0670659GE19MSL   +99999+99999GF199999999999042671999999MA1101325101085REMMET10501/02/20 16:52:02 METAR KDCA 022152Z 16004KT 10SM FEW140 BKN220 09/02 A2992 RMK AO2 SLP132 T00940017 (JV)
0215724050137432020010222527+38847-077035FM-15+0020KDCA V0302105N00265045725MN0160935N5+01115+00065101295ADDAA101000095GA1075+045725999GD13991+0457259GE19MSL   +99999+99999GF199999999999045721999999MA1101295101055REMMET09801/02/20 17:52:02 METAR KDCA 022252Z 21005KT 10SM BKN150 11/01 A2991 RMK AO2 SLP129 T01110006 (JV)
0273724050137432020010223527+38847-077035FM-15+0020KDCA V0301805N00315051825MN0160935N5+00895+00285101255ADDAA101000095GA1075+051825999GD13991+0518259GE19MSL   +99999+99999GF199999999999051821999999KA1060M+01111KA2060N+00831MA1101255101015MD1690129+9999REMMET11601/02/20 18:52:02 METAR KDCA 022352Z 18006KT 10SM BKN170 09/03 A2990 RMK AO2 SLP125 T00890028 10111 20083 56012 (JV)
0195724050137432020010300004+38850-077033FM-12+002099999V0201801N003119999999N016000199+00891+00281101251ADDGE19MSL   +99999+99999GF106991999999999999999999KA1120M+01111KA2120N+00001MA1999999101031MD1610121+9999REMSYN08072405 32966 61806 10089 20028 30103 40125 56012 92352 333 10111 20000 555 90300=
0248724050137432020010300527+38847-077035FM-15+0020KDCA V0302105N00265027435MN0160935N5+01005+00175101305ADDAA101000095GA1075+027435999GA2075+051825999GD13991+0274359GD23991+0518259GE19MSL   +99999+99999GF199999999999027431999999MA1101295101055REMMET10001/02/20 19:52:01 METAR KDCA 030052Z 21005KT 10SM BKN090 BKN170 10/02 A2991 RMK AO2 SLP130 T01000017
0248724050137432020010301527+38847-077035FM-15+0020KDCA V0301905N00365039625MN0160935N5+01005+00175101195ADDAA101000095GA1045+027435999GA2075+039625999GD12991+0274359GD23991+0396259GE19MSL   +99999+99999GF199999999999027431999999MA1101195100955REMMET10001/02/20 20:52:01 METAR KDCA 030152Z 19007KT 10SM SCT090 BKN130 10/02 A2988 RMK AO2 SLP119 T01000017
0268724050137432020010302527+38847-077035FM-15+0020KDCA V0302205N00315045725MN0160935N5+01175+00005101195ADDAA101000095GA1025+027435999GA2075+045725999GD11991+0274359GD23991+0457259GE19MSL   +99999+99999GF199999999999027431999999MA1101195100955MD1890069+9999REMMET10601/02/20 21:52:01 METAR KDCA 030252Z 22006KT 10SM FEW090 BKN150 12/00 A2988 RMK AO2 SLP119 T01170000 58006
0153724050137432020010303004+38850-077033FM-12+002099999V0202201N003119999999N016000199+01171+00001101191ADDGE19MSL   +99999+99999GF106991999999999999999999MA1999999100961MD1810061+9999REMSYN06472405 32966 62206 10117 20000 30096 40119 58006 90252 555 90303=
0210724050137432020010303527+38847-077035FM-15+0020KDCA V0302005N00265033535MN0160935N5+01175+00005101255ADDAA101000095GA1075+033535999GD13991+0335359GE19MSL   +99999+99999GF199999999999033531999999MA1101255101015REMMET09301/02/20 22:52:01 METAR KDCA 030352Z 20005KT 10SM BKN110 12/00 A2990 RMK AO2 SLP125 T01170000
0284724050137432020010304527+38847-077035FM-15+0020KDCA V0302105N00465030485MN0160935N5+01175+00005101175ADDAA101000095GA1075+030485999GA2085+045725999GD13991+0304859GD24991+0457259GE19MSL   +99999+99999GF199999999999030481999999KA1240M+01221KA2240N+00001MA1101195100955REMMET11001/02/20 23:52:02 METAR KDCA 030452Z 21009KT 10SM BKN100 OVC150 12/00 A2988 RMK AO2 SLP117 T01170000 401220000
0968724050137432020010304596+38847-077035SOD  +0020KDCA V030999999999999999999999999999+99999+99999999999ADDAA124000095AJ100009599999999AN1024000095KA1240M+01225KA2240N+00005KG1024W+0033D4KG2024D+0000D4MF1101194101424MG1101174101124OE11240076019099995OE22240058120099995OE33240021999999995RH1024X085D4RH2024N045D4RH3024M065D4REMSOD73924 HR PRECIPITATION (IN): 0.00 SNOW DEPTH (IN):0     24 HR SNOWFALL (IN):0.0  24 HR MAX TEMP (F): 5424 HR MIN TEMP (F): 32AVERAGE STATION PRESSURE:29.875 MINIMUM SEA LEVEL PRESSURE:29.86 TIME OF OCCURRENCE:2336 PEAK WIND SPEED (MPH): 17 PEAK WIND DIR (DEG):190 PEAK WIND TIME (LST):      FASTEST 2MIN SPEED (MPH): 13FASTEST 2MIN DIR (DEG):200 FASTEST 2MIN TIME (LST):     AVERAGE WIND SPEED (MPH): 4.9 24 HR AVG TEMP (F): 43DEPART FROM NORMAL:  7  HEATING DEGREE DAYS: 22 COOLING DEGREE DAYS:  0 LATEST DAY MAX TEMP (0700-1900 LST):52  LATEST NIGHT MIN TEMP(1900-0800 LST):32 HOURLY INCREMENTAL PRECIPITATION VALUES (IN):.00 0.00 0.00 0.00 0.00 0.00 0.00 0.00 0.00 0.00 0.00 0.00 0.00 0.00 0.00 0.00 0.00 0.00 0.00 0.00 0.00 0.00 0.00 0.00
0341724050137432020010305527+38847-077035FM-15+0020KDCA V0302005N00415030485MN0160935N5+01065+00285101145ADDAA101000025AA206000021GA1085+030485999GD14991+0304859GE19MSL   +99999+99999GF199999999999030481999999KA1060M+01221KA2060N+00891MA1101155100915MD1890049+9999REMMET13801/03/20 00:52:02 METAR KDCA 030552Z 20008KT 10SM OVC100 11/03 A2987 RMK AO2 RAB03E51 SLP114 P0000 60000 T01060028 10122 20089 58004 (CES)EQDQ01  00002PRCP06Q02  00008PRCP06
0231724050137432020010306004+38850-077033FM-12+002099999V0202001N004119999999N016000199+01061+00281101141ADDAA106000091GE19MSL   +99999+99999GF108991999999999999999999KA1240M+01221KA2240N+00001MA1999999100931MD1810041+9999REMSYN08672405 12966 82008 10106 20028 30093 40114 58004 69901 90552 333 10122 20000 555 90306=EQDQ01  00002PRCP06
0255724050137432020010306527+38847-077035FM-15+0020KDCA V0301805N00415030485MN0160935N5+00895+00445101115ADDAA101000025AU110020015AW1615GA1085+030485999GD14991+0304859GE19MSL   +99999+99999GF199999999999030481999999MA1101125100885MW1615REMMET11501/03/20 01:52:02 METAR KDCA 030652Z 18008KT 10SM -RA OVC100 09/04 A2986 RMK AO2 RAB12 SLP111 P0000 T00890044 (CES)
0325724050137432020010307527+38847-077035FM-15+0020KDCA V0301905N00515022865MN0160935N5+00895+00615101155ADDAA101000395AU110020015AW1615GA1045+013725999GA2075+022865999GA3085+027435999GD12991+0137259GD23991+0228659GD34991+0274359GE19MSL   +99999+99999GF199999999999013721999999MA1101155100915MW1615REMMET12301/03/20 02:52:02 METAR KDCA 030752Z 19010KT 10SM -RA SCT045 BKN075 OVC090 09/06 A2987 RMK AO2 SLP115 P0001 T00890061 (CES)
0318724050137432020010308277+38847-077035FM-16+0020KDCA V0301905N00365006105MN0160935N5+00835+00675999999ADDAA101000531AU110020015AW1615GA1075+006105999GA2075+008535999GA3085+016765999GD13991+0061059GD23991+0085359GD34991+0167659GE19MSL   +99999+99999GF199999999999006101999999MA1101155100915MW1615REMMET11601/03/20 03:27:02 SPECI KDCA 030827Z 19007KT 10SM -RA BKN020 BKN028 OVC055 08/07 A2987 RMK AO2 P0002 T00830067 (CES)
0304724050137432020010308527+38847-077035FM-15+0020KDCA V0302005N00315004885MN0144845N5+00895+00725101115ADDAA101001396AA203001092AU110020015AW1615GA1085+004885999GD14991+0048859GE19MSL   +99999+99999GF199999999999004881999999MA1101125100885MD1790039+9999MW1615REMMET12001/03/20 03:52:02 METAR KDCA 030852Z 20006KT 9SM -RA OVC016 09/07 A2986 RMK AO2 SLP111 P0003 60004 T00890072 57003 (CES)EQDQ01  00108PRCP03
0299724050137432020010308597+38847-077035FM-16+0020KDCA V0301905N00315003055MN0096565N5+00835+00725999999ADDAA101000531AU110020015AU200001015AW1105AW2615GA1075+003055999GA2085+004575999GD13991+0030559GD24991+0045759GE19MSL   +99999+99999GF199999999999003051999999MA1101125100885MW1615REMMET11101/03/20 03:59:02 SPECI KDCA 030859Z 19006KT 6SM -RA BR BKN010 OVC015 08/07 A2986 RMK AO2 P0002 T00830072 (CES)
0198724050137432020010309004+38850-077033FM-12+002099999V0202001N003119999999N014000199+00891+00721101111ADDAA103001031GA1999+004501999GE19MSL   +99999+99999GF108991999999004501999999MA1999999100901MD1710031+9999MW1611REMSYN07672405 11464 82006 10089 20072 30090 40111 57003 60017 761// 90852 555 90309=
0242724050137432020010309307+38847-077035FM-16+0020KDCA V0301905N00315002745MN0160935N5+00785+00725999999ADDAA101001231AU110020015AW1615GA1085+002745999GD14991+0027459GE19MSL   +99999+99999GF199999999999002741999999MA1101085100845MW1615REMMET10201/03/20 04:30:02 SPECI KDCA 030930Z 19006KT 10SM -RA OVC009 08/07 A2985 RMK AO2 P0005 T00780072 (CES)
0248724050137432020010309527+38847-077035FM-15+0020KDCA V0301905N00265002445MN0128755N5+00835+00785101075ADDAA101001395AU110020015AW1615GA1085+002445999GD14991+0024459GE19MSL   +99999+99999GF199999999999002441999999MA1101085100845MW1615REMMET10801/03/20 04:52:02 METAR KDCA 030952Z 19005KT 8SM -RA OVC008 08/08 A2985 RMK AO2 SLP107 P0006 T00830078 (CES)
0241724050137432020010310057+38847-077035FM-16+0020KDCA V0301805N00265002135MN0112655N5+00895+00785999999ADDAA101000531AU110020015AW1615GA1085+002135999GD14991+0021359GE19MSL   +99999+99999GF199999999999002131999999MA1101055100815MW1615REMMET10101/03/20 05:05:02 SPECI KDCA 031005Z 18005KT 7SM -RA OVC007 09/08 A2984 RMK AO2 P0002 T00890078 (CES)
0249724050137432020010310527+38847-077035FM-15+0020KDCA V0302005N00315002135MN0160935N5+00835+00785101005ADDAA101001395AU110020015AW1615GA1085+002135999GD14991+0021359GE19MSL   +99999+99999GF199999999999002131999999MA1101025100785MW1615REMMET10901/03/20 05:52:02 METAR KDCA 031052Z 20006KT 10SM -RA OVC007 08/08 A2983 RMK AO2 SLP100 P0006 T00830078 (CES)
0241724050137432020010311327+38847-077035FM-16+0020KDCA V0302205N00315002445MN0128755N5+00945+00835999999ADDAA101000231AU110020015AW1615GA1085+002445999GD14991+0024459GE19MSL   +99999+99999GF199999999999002441999999MA1101025100785MW1615REMMET10101/03/20 06:32:02 SPECI KDCA 031132Z 22006KT 8SM -RA OVC008 09/08 A2983 RMK AO2 P0001 T00940083 (CES)
0376724050137432020010311527+38847-077035FM-15+0020KDCA V0302005N00265002445MN0160935N5+00895+00835100985ADDAA101000595AA206004691AA324004691AU110020015AW1615GA1085+002445999GD14991+0024459GE19MSL   +99999+99999GF199999999999002441999999KA1060M+01061KA2060N+00781MA1100985100745MD1690149+9999MW1615REMMET13901/03/20 06:52:02 METAR KDCA 031152Z 20005KT 10SM -RA OVC008 09/08 A2982 RMK AO2 SLP098 P0002 60018 70018 T00890083 10106 20078 56014 (CES)EQDQ01  00458PRCP06Q02  00458PRCP24
0257724050137432020010312004+38850-077033FM-12+002099999V0202001N002619999999N016000199+00891+00831100981ADDAA106005032AA224004632GA1999+002501999GE19MSL   +99999+99999GF108991999999002501999999KA1240M+01221KA2240N+00781MA1999999100761MD1610141+9999MW1611REMSYN09872405 11366 82005 10089 20083 30076 40098 56014 60051 761// 91152 333 10122 20078 70046 555 90312=
0230724050137432020010312527+38847-077035FM-15+0020KDCA V0302005N00415002745MN0160935N5+00945+00785101005ADDAA101000095GA1085+002745999GD14991+0027459GE19MSL   +99999+99999GF199999999999002741999999MA1101025100785REMMET11301/03/20 07:52:02 METAR KDCA 031252Z 20008KT 10SM OVC009 09/08 A2983 RMK AO2 RAE1155 SLP100 P0000 T00940078 (JMT)
0223724050137432020010313527+38847-077035FM-15+0020KDCA V0302105N00415002745MN0160935N5+00945+00835101195ADDAA101000095GA1085+002745999GD14991+0027459GE19MSL   +99999+99999GF199999999999002741999999MA1101195100955REMMET10601/03/20 08:52:02 METAR KDCA 031352Z 21008KT 10SM OVC009 09/08 A2988 RMK AO2 PRESRR SLP119 T00940083 (JMT)
0205724050137432020010314357+38847-077035FM-16+0020KDCA V0301905N00315003055MN0160935N5+00945+00835999999ADDGA1085+003055999GD14991+0030559GE19MSL   +99999+99999GF199999999999003051999999MA1101085100845REMMET09901/03/20 09:35:02 SPECI KDCA 031435Z 19006KT 10SM OVC010 09/08 A2985 RMK AO2 PRESFR T00940083 (JMT)
0253724050137432020010314527+38847-077035FM-15+0020KDCA V0301805N00315003055MN0160935N5+00945+00835101105ADDAA101000095AA203000021GA1085+003055999GD14991+0030559GE19MSL   +99999+99999GF199999999999003051999999MA1101125100885MD1090139+9999REMMET11101/03/20 09:52:02 METAR KDCA 031452Z 18006KT 10SM OVC010 09/08 A2986 RMK AO2 SLP110 60000 T00940083 50013 (JMT)
0186724050137432020010315004+38850-077033FM-12+002099999V0201801N003119999999N016000199+00941+00831101101ADDAA103000021GA1999+004501999GE19MSL   +99999+99999GF108991999999004501999999MA1999999100901MD1990131+9999REMSYN07072405 12466 81806 10094 20083 30090 40110 50013 69907 91452 555 90315=
0216724050137432020010315527+38847-077035FM-15+0020KDCA V0301805N00315003355MN0160935N5+01005+00895101095ADDAA101000095GA1085+003355999GD14991+0033559GE19MSL   +99999+99999GF199999999999003351999999MA1101085100845REMMET09901/03/20 10:52:02 METAR KDCA 031552Z 18006KT 10SM OVC011 10/09 A2985 RMK AO2 SLP109 T01000089 (JMT)
0254724050137432020010316527+38847-077035FM-15+0020KDCA V0301805N00415003665MN0160935N5+01115+00945100955ADDAA101000095GA1075+003665999GA2085+033535999GD13991+0036659GD24991+0335359GE19MSL   +99999+99999GF199999999999003661999999MA1100955100715REMMET10601/03/20 11:52:02 METAR KDCA 031652Z 18008KT 10SM BKN012 OVC110 11/09 A2981 RMK AO2 SLP095 T01110094 (JMT)
0274724050137432020010317347+38847-077035FM-16+0020KDCA V0301705N00515076205MN0160935N5+01065+00835999999ADDGA1045+003965999GA2045+036585999GA3085+076205999GD12991+0039659GD22991+0365859GD34991+0762059GE19MSL   +99999+99999GF199999999999003961999999MA1100885100645REMMET10601/03/20 12:34:02 SPECI KDCA 031734Z 17010KT 10SM SCT013 SCT120 OVC250 11/08 A2979 RMK AO2 T01060083 (JMT)
0382724050137432020010317527+38847-077035FM-15+0020KDCA V0301905N003652200059N0160935N5+01065+00835100925ADDAA101000095AA206000021GA1025+003965999GA2045+028965999GA3045+036585999GD11991+0039659GD22991+0289659GD32991+0365859GD44991+0762019GE19MSL   +99999+99999GF199999999999003961999999KA1060M+01171KA2060N+00891MA1100915100675MD1890189+9999REMMET13701/03/20 12:52:02 METAR KDCA 031752Z 19007KT 10SM FEW013 SCT095 SCT120 11/08 A2980 RMK AO2 SLP092 60000 T01060083 10117 20089 58018 (JMT)
0228724050137432020010318004+38850-077033FM-12+002099999V0201901N003619999999N016000199+01061+00831100921ADDAA106000021GA1999+004501999GE19MSL   +99999+99999GF108991999999004501999999KA1120M+01171KA2120N+00831MA1999999100691MD1810181+9999REMSYN08672405 12466 81907 10106 20083 30069 40092 58018 69901 91752 333 10117 20083 555 90318=
0331724050137432020010318527+38847-077035FM-15+0020KDCA V0301905N00315030485MN0160935N5+01175+01005100965ADDAA101000395AU110020015AW1615GA1045+012195999GA2075+030485999GA3085+033535999GD12991+0121959GD23991+0304859GD34991+0335359GE19MSL   +99999+99999GF199999999999012191999999MA1100985100745MW1615REMMET12901/03/20 13:52:02 METAR KDCA 031852Z 19006KT 10SM -RA SCT040 BKN100 OVC110 12/10 A2982 RMK AO2 RAB02 SLP096 P0001 T01170100 (JMT)
0266724050137432020010319527+38847-077035FM-15+0020KDCA V0301805N00365033535MN0160935N5+01115+00945100945ADDAA101000025GA1025+011585999GA2085+033535999GD11991+0115859GD24991+0335359GE19MSL   +99999+99999GF199999999999011581999999MA1100955100715REMMET11801/03/20 14:52:02 METAR KDCA 031952Z 18007KT 10SM FEW038 OVC110 11/09 A2981 RMK AO2 RAE34 SLP094 P0000 T01110094 (JMT)
0379724050137432020010320527+38847-077035FM-15+0020KDCA V0309999C00005033535MN0160935N5+01115+01005100965ADDAA101000395AA203000591GA1045+019815999GA2045+028965999GA3075+033535999GD12991+0198159GD22991+0289659GD33991+0335359GD44991+0762019GE19MSL   +99999+99999GF199999999999019811999999MA1100985100745MD1190049+9999REMMET14101/03/20 15:52:02 METAR KDCA 032052Z 00000KT 10SM SCT065 SCT095 BKN110 11/10 A2982 RMK AO2 RAB1954E21 SLP096 P0001 60002 T01110100 51004 (JV)EQDQ01  00058PRCP03
0186724050137432020010321004+38850-077033FM-12+002099999V0209999C000019999999N016000199+01111+01001100961ADDAA103000531GA1999+017501999GE19MSL   +99999+99999GF108991999999017501999999MA1999999100761MD1110041+9999REMSYN07072405 12766 80000 10111 20100 30076 40096 51004 69957 92052 555 90321=
0292724050137432020010321527+38847-077035FM-15+0020KDCA V0301805N00265033535MN0160935N5+01065+01005101015ADDAA101000025AU110020015AW1615GA1025+019815999GA2085+033535999GD11991+0198159GD24991+0335359GE19MSL   +99999+99999GF199999999999019811999999MA1101025100785MW1615REMMET12101/03/20 16:52:02 METAR KDCA 032152Z 18005KT 10SM -RA FEW065 OVC110 11/10 A2983 RMK AO2 RAB19 SLP101 P0000 T01060100 (JV)
0324724050137432020010322527+38847-077035FM-15+0020KDCA V0309999C00005033535MN0160935N5+01065+01005101005ADDAA101000025AU110020015AW1615GA1025+021345999GA2075+033535999GA3075+076205999GD11991+0213459GD23991+0335359GD33991+0762059GE19MSL   +99999+99999GF199999999999021341999999MA1101025100785MW1615REMMET12201/03/20 17:52:02 METAR KDCA 032252Z 00000KT 10SM -RA FEW070 BKN110 BKN250 11/10 A2983 RMK AO2 SLP100 P0000 T01060100 (JV)
0379724050137432020010323527+38847-077035FM-15+0020KDCA V0302005N00265033535MN0128755N5+01065+01005101005ADDAA101000395AA206000891AU110020015AW1615GA1025+022865999GA2085+033535999GD11991+0228659GD24991+0335359GE19MSL   +99999+99999GF199999999999022861999999KA1060M+01171KA2060N+00941MA1101025100785MD1190049+9999MW1615REMMET13801/03/20 18:52:02 METAR KDCA 032352Z 20005KT 8SM -RA FEW075 OVC110 11/10 A2983 RMK AO2 SLP100 P0001 60003 T01060100 10117 20094 51004 (JV)EQDQ01  00078PRCP06
0240724050137432020010400004+38850-077033FM-12+002099999V0202001N002619999999N012000199+01061+01001101001ADDAA106000831GA1999+022501999GE19MSL   +99999+99999GF108991999999022501999999KA1120M+01171KA2120N+00781MA1999999100801MD1110041+9999MW1611REMSYN09272405 11862 82005 10106 20100 30080 40100 51004 69981 761// 92352 333 10117 20078 555 90400=
0252724050137432020010400287+38847-077035FM-16+0020KDCA V0301805N00315003355MN0112655N5+01065+01005999999ADDAA101000021GA1075+003355999GA2085+036585999GD13991+0033559GD24991+0365859GE19MSL   +99999+99999GF199999999999003351999999MA1101055100815REMMET10401/03/20 19:28:01 SPECI KDCA 040028Z 18006KT 7SM BKN011 OVC120 11/10 A2984 RMK AO2 RAE09 P0000 T01060100
0251724050137432020010400527+38847-077035FM-15+0020KDCA V0301905N00265003055MN0128755N5+01065+01065101065ADDAA101000025AU110020015AW1615GA1085+003055999GD14991+0030559GE19MSL   +99999+99999GF199999999999003051999999MA1101055100815MW1615REMMET11101/03/20 19:52:01 METAR KDCA 040052Z 19005KT 8SM -RA OVC010 11/11 A2984 RMK AO2 RAE09B52 SLP106 P0000 T01060106
0235724050137432020010400567+38847-077035FM-16+0020KDCA V0301905N00265002745MN0144845N5+01115+01065999999ADDAA101000021AU110020015AW1615GA1085+002745999GD14991+0027459GE19MSL   +99999+99999GF199999999999002741999999MA1101085100845MW1615REMMET09501/03/20 19:56:01 SPECI KDCA 040056Z 19005KT 9SM -RA OVC009 11/11 A2985 RMK AO2 P0000 T01110106
0205724050137432020010401487+38847-077035FM-16+0020KDCA V0309999C00005002135MN0160935N5+01205+01105999999ADDAA101000231GA1085+002135999GD14991+0021359GE19MSL   +99999+99999GF199999999999002131999999MA1101085100845REMMET08801/03/20 20:48:01 SPECI KDCA 040148Z 00000KT 10SM OVC007 12/11 A2985 RMK AO2 RAE31 P0001
0221724050137432020010401527+38847-077035FM-15+0020KDCA V0309999C00005002135MN0144845N5+01175+01115101075ADDAA101000395GA1085+002135999GD14991+0021359GE19MSL   +99999+99999GF199999999999002131999999MA1101085100845REMMET10401/03/20 20:52:01 METAR KDCA 040152Z 00000KT 9SM OVC007 12/11 A2985 RMK AO2 RAE31 SLP107 P0001 T01170111
0230724050137432020010402187+38847-077035FM-16+0020KDCA V0309999C00005001835MN0112655N5+01005+00945999999ADDAA101000021GA1085+001835999GD14991+0018359GE19MSL   +99999+99999GF199999999999001831999999MA1100985100745REMMET11301/03/20 21:18:01 SPECI KDCA 040218Z 00000KT 7SM OVC006 10/09 A2982 RMK AO2 RAB0153E16 MIFG ALQDS P0000 T01000094
0299724050137432020010402527+38847-077035FM-15+0020KDCA V0309999C00005001835MN0112655N5+01065+01065100915ADDAA101000025AA203000391GA1085+001835999GD14991+0018359GE19MSL   +99999+99999GF199999999999001831999999MA1100915100675MD1890159+9999REMMET13801/03/20 21:52:01 METAR KDCA 040252Z 00000KT 7SM OVC006 11/11 A2980 RMK AO2 RAB0153E16B21E49 SLP091 MIFG ALQDS P0000 60001 T01060106 58015EQDQ01  00028PRCP03
0186724050137432020010403004+38850-077033FM-12+002099999V0209999C000019999999N011000199+01061+01061100911ADDAA103000331GA1999+001501999GE19MSL   +99999+99999GF108991999999001501999999MA1999999100691MD1810151+9999REMSYN07072405 12261 80000 10106 20106 30069 40091 58015 69937 90252 555 90403=
0278724050137432020010403527+38847-077035FM-15+0020KDCA V0301005N00155002135MN0112655N5+01065+01065100955ADDAA101000395AU110020015AW1615ED101U06109GA1085+002135999GD14991+0021359GE19MSL   +99999+99999GF199999999999002131999999MA1100955100715MW1615REMMET12701/03/20 22:52:01 METAR KDCA 040352Z 10003KT 7SM R01/2000VP6000FT -RA OVC007 11/11 A2981 RMK AO2 RAB0257 SLP095 P0001 T01060106
0362724050137432020010403587+38847-077035FM-16+0020KDCA V0301005N00155001835MN011265ANA+01005+01005999999ADDAA101000021AU11002001UAU20100002UAU30000203UAW1311AW2616ED101U05499GA1085+001835999GD14991+0018359GE19MSL   +99999+99999GF199999999999001831999999MA1100955100715MW1616REMMET11601/03/20 22:58:01 SPECI KDCA 040358Z 10003KT 7SM R01/1800V3500FT -RA MIFG OVC006 10/10 A2981 RMK AO2 P0000 T01000100EQDR01   7SM7VIS018R02-RA MI7AWW018R03SEERMK7MVW018R04-RA MI7MWW018
0298724050137432020010404527+38847-077035FM-15+0020KDCA V0301505N00155001835MN0096565N5+01115+01115100875ADDAA101000595AU110020015AU200001015AW1105AW2615GA1085+001835999GD14991+0018359GE19MSL   +99999+99999GF199999999999001831999999KA1240M+01171KA2240N+00781MA1100885100645MW1615REMMET11501/03/20 23:52:02 METAR KDCA 040452Z 15003KT 6SM -RA BR OVC006 11/11 A2979 RMK AO2 SLP087 P0001 T01110111 401170078
1057724050137432020010404596+38847-077035SOD  +0020KDCA V030999999999999999999999999999+99999+99999999999ADDAA124006495AJ100009599999999AN1024000095AT1AU16RA  5AT2AU01FG  UAT3AU13BR  5AX1015245KA1240M+01175KA2240N+00785KG1024W+0094D4KG2024D+0089D4MF1100754101024MG1100764100854OE11240071519099995OE22240058117099995OE33240026899999995RH1024X100D4RH2024N059D4RH3024M093D4REMSOD78324 HR PRECIPITATION (IN): 0.25 SNOW DEPTH (IN):0     24 HR SNOWFALL (IN):0.0  WEATHER(CODE):1  24 HR MAX TEMP (F): 5324 HR MIN TEMP (F): 46AVERAGE STATION PRESSURE:29.755 MINIMUM SEA LEVEL PRESSURE:29.78 TIME OF OCCURRENCE:2359 PEAK WIND SPEED (MPH): 16 PEAK WIND DIR (DEG):190 PEAK WIND TIME (LST):      FASTEST 2MIN SPEED (MPH): 13FASTEST 2MIN DIR (DEG):170 FASTEST 2MIN TIME (LST):     AVERAGE WIND SPEED (MPH): 6.0 24 HR AVG TEMP (F): 50DEPART FROM NORMAL: 14  SKY COVER SR-SS (TENTHS): 1HEATING DEGREE DAYS: 15 COOLING DEGREE DAYS:  0 LATEST DAY MAX TEMP (0700-1900 LST):53  LATEST NIGHT MIN TEMP(1900-0800 LST):46 HOURLY INCREMENTAL PRECIPITATION VALUES (IN):    T    0.01 0.05 0.05 0.05 0.02 0.00 0.00 0.00 0.00 0.00 0.00 0.01 T    0.01 T    T    0.01 T    0.01 T    0.01 0.02
0492724050137432020010405527+38847-077035FM-15+0020KDCA V0309999C00005001835MN009656ANA+01065+01065100795ADDAA101000025AA206001091AU11002001AAU20000101AAU30100201AAW1106AW2311AW3616ED101U06719GA1085+001835999GD14991+0018359GE19MSL   +99999+99999GF199999999999001831999999KA1060M+01171KA2060N+00941MA1100815100575MD1890119+9999MW1616REMMET17301/04/20 00:52:02 METAR KDCA 040552Z 00000KT 6SM R01/2200VP6000FT -RA BR MIFG OVC006 11/11 A2977 RMK AO2 RAE08B46 PRESFR SLP079 P0001 60004 T01060106 10117 20094 58011 (CES)EQDQ01  00108PRCP06R01   6SM7VIS018R02-RA BR7AWW018R03SEERMK7MVW018R04-RA BR7MWW018
0246724050137432020010406004+38850-077033FM-12+002099999V0209999C000019999999N009000199+01061+01061100791ADDAA106001031GA1999+001501999GE19MSL   +99999+99999GF108991999999001501999999KA1240M+01171KA2240N+00781MA1999999100591MD1810111+9999MW1611REMSYN09872405 11259 80000 10106 20106 30059 40079 58011 60011 761// 90552 333 10117 20078 96010 555 90406=
0356724050137432020010406197+38847-077035FM-16+0020KDCA V0309999C00005001525MN009656ANA+01065+01005999999ADDAA101000021AU10000101AAU20100201AAW1106AW2311ED101U04889GA1085+001525999GD14991+0015259GE19MSL   +99999+99999GF199999999999001521999999MA1100755100515REMMET12701/04/20 01:19:02 SPECI KDCA 040619Z 00000KT 6SM R01/1600V2200FT BR MIFG OVC005 11/10 A2975 RMK AO2 RAE13 P0000 T01060100 (CES)EQDR01   6SM7VIS018R02BR MIF7AWW018R03SEERMK7MVW018R04BR MIF7MWW018
0386724050137432020010406317+38847-077035FM-16+0020KDCA V0302105N00155001525MN009656ANA+01065+01065999999ADDAA101000021AU11002001AAU20000101AAU30100201AAW1106AW2311AW3616ED101U06109GA1085+001525999GD14991+0015259GE19MSL   +99999+99999GF199999999999001521999999MA1100815100575MW1616REMMET13401/04/20 01:31:02 SPECI KDCA 040631Z 21003KT 6SM R01/2000V4000FT -RA BR MIFG OVC005 11/11 A2977 RMK AO2 RAE13B22 P0000 T01060106 (CES)EQDR01   6SM7VIS018R02-RA BR7AWW018R03SEERMK7MVW018R04-RA BR7MWW018
0182724050137432020010406506+38847-077035FM-16+0020KDCA V0301605N00265000915MN0096565N5+01105+01105999999ADDAU100001015AW1105GA1085+000915999GD14991+0009159MA1100755100515REMMET10701/04/20 01:50:02 SPECI KDCA 040650Z 16005KT 6SM BR OVC003 11/11 A2975 RMK AO2 RAE13B22E43 P0001 FIBI (CES)
0260724050137432020010406527+38847-077035FM-15+0020KDCA V0301605N00265000915MN0096565N5+01115+01115100735ADDAA101000395AU100001015AW1105GA1085+000915999GD14991+0009159GE19MSL   +99999+99999GF199999999999000911999999MA1100755100515REMMET12601/04/20 01:52:02 METAR KDCA 040652Z 16005KT 6SM BR OVC003 11/11 A2975 RMK AO2 RAE13B22E43 PRESFR SLP073 P0001 T01110111 (CES)
0390724050137432020010407527+38847-077035FM-15+0020KDCA V0301805N00315000915MN009656ANA+01115+01115100775ADDAA101000395AU11002001AAU20000101AAU30100201AAW1106AW2311AW3616ED101U06109GA1085+000915999GD14991+0009159GE19MSL   +99999+99999GF199999999999000911999999MA1100785100545MW1616REMMET13801/04/20 02:52:02 METAR KDCA 040752Z 18006KT 6SM R01/2000V2400FT -RA BR MIFG OVC003 11/11 A2976 RMK AO2 RAB22 SLP077 P0001 T01110111 (CES)EQDR01   6SM7VIS018R02-RA BR7AWW018R03SEERMK7MVW018R04-RA BR7MWW018
0289724050137432020010407557+38847-077035FM-16+0020KDCA V0301705N00365000915WN0008055N5+01115+01115999999ADDAA101000021AU110020015AU200002015AW1305AW2615ED101U06109GA1095+000915999GD15991+0009159GE19MSL   +99999+99999GF109991999999000911999999MA1100755100515MW1615REMMET12101/04/20 02:55:02 SPECI KDCA 040755Z 17007KT 1/2SM R01/2000V2400FT -RA FG VV003 11/11 A2975 RMK AO2 P0000 T01110111 (CES)
0268724050137432020010408067+38847-077035FM-16+0020KDCA V0301805N00315000915WN0004025N5+01065+01065999999ADDAA101000021AU100002015AW1305ED101U05499GA1095+000915999GD15991+0009159GE19MSL   +99999+99999GF109991999999000911999999MA1100755100515REMMET12301/04/20 03:06:02 SPECI KDCA 040806Z 18006KT 1/4SM R01/1800V2200FT FG VV003 11/11 A2975 RMK AO2 RAE06 P0000 T01060106 (CES)
0264724050137432020010408477+38847-077035FM-16+0020KDCA V0302305N00155001225WN0008055N5+01105+01105999999ADDAA101000021AU100002015AW1305ED101U06109GA1095+001225999GD15991+0012259GE19MSL   +99999+99999GF109991999999001221999999MA1100615100375REMMET11901/04/20 03:47:02 SPECI KDCA 040847Z 23003KT 1/2SM R01/2000V3000FT FG VV004 11/11 A2971 RMK AO2 RAE06B12E32 P0000 (CES)
0337724050137432020010408527+38847-077035FM-15+0020KDCA V0302005N00215001225WN0008055N5+01115+01115100625ADDAA101000025AA203000591AU100002015AW1305ED101U09149GA1095+001225999GD15991+0012259GE19MSL   +99999+99999GF109991999999001221999999MA1100615100375MD1890119+9999REMMET14801/04/20 03:52:02 METAR KDCA 040852Z 20004KT 1/2SM R01/3000V4500FT FG VV004 11/11 A2971 RMK AO2 RAE06B12E32 SLP062 P0000 60002 T01110111 58011 (CES)EQDQ01  00058PRCP03
0198724050137432020010409004+38850-077033FM-12+002099999V0202001N00211002401WN000800199+01111+01111100621ADDAA103000531GA1999+001501999GE19MSL   +99999+99999GF109991999999001501999999MA1999999100391MD1810111+9999MW1411REMSYN07672405 11208 92004 10111 20111 30039 40062 58011 69957 741// 90852 555 90409=
0221724050137432020010409077+38847-077035FM-16+0020KDCA V0302105N00265001225MN0028165N5+01175+01115999999ADDAU100001015AW1105GA1085+001225999GD14991+0012259GE19MSL   +99999+99999GF199999999999001221999999MA1100615100375REMMET09801/04/20 04:07:02 SPECI KDCA 040907Z 21005KT 1 3/4SM BR OVC004 12/11 A2971 RMK AO2 T01170111 (CES)
0217724050137432020010409137+38847-077035FM-16+0020KDCA V0302205N00155001225MN0048285N5+01175+01115999999ADDAU100001015AW1105GA1085+001225999GD14991+0012259GE19MSL   +99999+99999GF199999999999001221999999MA1100615100375REMMET09401/04/20 04:13:02 SPECI KDCA 040913Z 22003KT 3SM BR OVC004 12/11 A2971 RMK AO2 T01170111 (CES)
0309724050137432020010409207+38847-077035FM-16+0020KDCA V0309999C00005001525MN0040235N5+01175+01115999999ADDAA101000021AU110020015AU200001015AW1105AW2615GA1075+001525999GA2085+036585999GD13991+0015259GD24991+0365859GE19MSL   +99999+99999GF199999999999001521999999MA1100545100305MW1615REMMET12101/04/20 04:20:02 SPECI KDCA 040920Z 00000KT 2 1/2SM -RA BR BKN005 OVC120 12/11 A2969 RMK AO2 RAB20 P0000 T01170111 (CES)
0335724050137432020010409257+38847-077035FM-16+0020KDCA V0309999C00005001525MN0012075N5+01065+01065999999ADDAA101000021AU110020015AU200001015AW1105AW2615ED101U06109GA1075+001525999GA2085+036585999GD13991+0015259GD24991+0365859GE19MSL   +99999+99999GF199999999999001521999999MA1100545100305MW1615REMMET13601/04/20 04:25:02 SPECI KDCA 040925Z 00000KT 3/4SM R01/2000VP6000FT -RA BR BKN005 OVC120 11/11 A2969 RMK AO2 RAB20 P0000 T01060106 (CES)
0334724050137432020010409407+38847-077035FM-16+0020KDCA V0309999C00005001525MN0004025N5+01065+01065999999ADDAA101000021AU110020015AU200002015AW1305AW2615ED101U04889GA1075+001525999GA2085+036585999GD13991+0015259GD24991+0365859GE19MSL   +99999+99999GF199999999999001521999999MA1100585100345MW1615REMMET13501/04/20 04:40:02 SPECI KDCA 040940Z 00000KT 1/4SM R01/1600V2200FT -RA FG BKN005 OVC120 11/11 A2970 RMK AO2 RAB20 P0000 T01060106 (CES)
0285724050137432020010409477+38847-077035FM-16+0020KDCA V0309999C00005002135WN0004025N5+01105+01105999999ADDAA101000021AU110020015AU200002015AW1305AW2615ED101U06109GA1095+002135999GD15991+0021359GE19MSL   +99999+99999GF109991999999002131999999MA1100585100345MW1615REMMET11701/04/20 04:47:02 SPECI KDCA 040947Z 00000KT 1/4SM R01/2000V3000FT -RA FG VV007 11/11 A2970 RMK AO2 RAB20 P0000 (CES)
0232724050137432020010409506+38847-077035FM-16+0020KDCA V0302605N00155002445MN0008055N5+01105+01105999999ADDAU110020015AU200002015AW1305AW2615ED101U07329GA1085+002445999GD14991+0024459MA1100615100375MW1615REMMET12301/04/20 04:50:02 SPECI KDCA 040950Z 26003KT 1/2SM R01/2400V3500FT -RA FG OVC008 11/11 A2971 RMK AO2 RAB20 P0000 FIBI (CES)
0303724050137432020010409527+38847-077035FM-15+0020KDCA V0309999C00005002445MN0008055N5+01115+01065100595ADDAA101000025AU110020015AU200002015AW1305AW2615ED101U07329GA1085+002445999GD14991+0024459GE19MSL   +99999+99999GF199999999999002441999999MA1100615100375MW1615REMMET13501/04/20 04:52:02 METAR KDCA 040952Z 00000KT 1/2SM R01/2400V4000FT -RA FG OVC008 11/11 A2971 RMK AO2 RAB20 SLP059 P0000 T01110106 (CES)
0272724050137432020010410017+38847-077035FM-16+0020KDCA V0309999C00005001835MN0012075N5+01115+01115999999ADDAA101000021AU100001015AW1105ED101U07929GA1085+001835999GD14991+0018359GE19MSL   +99999+99999GF199999999999001831999999MA1100585100345REMMET12701/04/20 05:01:02 SPECI KDCA 041001Z 00000KT 3/4SM R01/2600VP6000FT BR OVC006 11/11 A2970 RMK AO2 RAE0959 P0000 T01110111 (CES)
0276724050137432020010410506+38847-077035FM-16+0020KDCA V0301905N00265033535MN0008055N5+01105+01105999999ADDAU110020015AU200002015AW1305AW2615ED101U05499GA1045+001835999GA2085+033535999GD12991+0018359GD24991+0335359MA1100545100305MW1615REMMET13601/04/20 05:50:02 SPECI KDCA 041050Z 19005KT 1/2SM R01/1800VP6000FT -RA FG SCT006 OVC110 11/11 A2969 RMK AO2 RAE0959B33 P0000 FIBI (CES)
0347724050137432020010410527+38847-077035FM-15+0020KDCA V0301905N00265033535MN0008055N5+01115+01115100525ADDAA101000025AU110020015AU200002015AW1305AW2615ED101U07329GA1045+001835999GA2085+033535999GD12991+0018359GD24991+0335359GE19MSL   +99999+99999GF199999999999001831999999MA1100515100275MW1615REMMET14801/04/20 05:52:02 METAR KDCA 041052Z 19005KT 1/2SM R01/2400VP6000FT -RA FG SCT006 OVC110 11/11 A2968 RMK AO2 RAE0959B33 SLP052 P0000 T01110111 (CES)
0454724050137432020010411007+38847-077035FM-16+0020KDCA V0302205N00265033535MN009656ANA+01115+01115999999ADDAA101000021AU11002001AAU20000101AAU30100201AAW1106AW2311AW3616ED101U10679GA1025+001835999GA2025+022865999GA3075+033535999GD11991+0018359GD21991+0228659GD33991+0335359GE19MSL   +99999+99999GF199999999999001831999999MA1100585100345MW1616REMMET14001/04/20 06:00:02 SPECI KDCA 041100Z 22005KT 6SM R01/3500VP6000FT -RA BR MIFG FEW006 FEW075 BKN110 11/11 A2970 RMK AO2 P0000 T01110111 (CES)EQDR01   6SM7VIS018R02-RA BR7AWW018R03SEERMK7MVW018R04-RA BR7MWW018
0338724050137432020010411447+38847-077035FM-16+0020KDCA V0302105N00155001835MN0112655N5+01175+01175999999ADDAA101000021AU101002015AW1311GA1075+001835999GA2075+024385999GA3085+030485999GD13991+0018359GD23991+0243859GD34991+0304859GE19MSL   +99999+99999GF199999999999001831999999MA1100545100305REMMET14201/04/20 06:44:02 SPECI KDCA 041144Z 21003KT 7SM MIFG BKN006 BKN080 OVC100 12/12 A2969 RMK AO2 RAE02 MIFG ALG RIVER E-SE P0000 T01170117 (CES)
0434724050137432020010411527+38847-077035FM-15+0020KDCA V0309999C00005001835MN0144845N5+01175+01175100555ADDAA101000025AA206000591AA324002391AU101002015AW1311GA1075+001835999GA2085+024385999GD13991+0018359GD24991+0243859GE19MSL   +99999+99999GF199999999999001831999999KA1060M+01171KA2060N+01001MA1100545100305MD1590039+9999REMMET17201/04/20 06:52:02 METAR KDCA 041152Z 00000KT 9SM MIFG BKN006 OVC080 12/12 A2969 RMK AO2 RAE02 SLP055 MIFG ALG RIVER E-SE P0000 60002 70009 T01170117 10117 20100 55003 (BGS)EQDQ01  00058PRCP06Q02  00228PRCP24
0245724050137432020010412004+38850-077033FM-12+002099999V0209999C000019999999N014000199+01171+01171100551ADDAA106000531AA224002331GA1999+001501999GE19MSL   +99999+99999GF108991999999001501999999KA1240M+01171KA2240N+00941MA1999999100321MD1510031+9999REMSYN09272405 11264 80000 10117 20117 30032 40055 55003 69951 91152 333 10117 20094 70023 555 90412=
0293724050137432020010412527+38847-077035FM-15+0020KDCA V0303105N00265001835MN0144845N5+01225+01175100605ADDAA101000095AU101002015AW1311GA1075+001835999GA2085+025915999GD13991+0018359GD24991+0259159GE19MSL   +99999+99999GF199999999999001831999999MA1100615100375REMMET12801/04/20 07:52:02 METAR KDCA 041252Z 31005KT 9SM MIFG BKN006 OVC085 12/12 A2971 RMK AO2 SLP060 MIFG ALG RIVER NE T01220117 (BGS)
0273724050137432020010413077+38847-077035FM-16+0020KDCA V0301705N00315003665MN0144845N5+01175+01175999999ADDGA1045+001835999GA2075+003665999GA3085+014635999GD12991+0018359GD23991+0036659GD34991+0146359GE19MSL   +99999+99999GF199999999999001831999999MA1100585100345REMMET10501/04/20 08:07:02 SPECI KDCA 041307Z 17006KT 9SM SCT006 BKN012 OVC048 12/12 A2970 RMK AO2 T01170117 (BGS)
0273724050137432020010413207+38847-077035FM-16+0020KDCA V0301805N00365014945MN0144845N5+01115+01115999999ADDGA1025+002445999GA2075+014945999GA3085+018295999GD11991+0024459GD23991+0149459GD34991+0182959GE19MSL   +99999+99999GF199999999999002441999999MA1100585100345REMMET10501/04/20 08:20:02 SPECI KDCA 041320Z 18007KT 9SM FEW008 BKN049 OVC060 11/11 A2970 RMK AO2 T01110111 (BGS)
0215724050137432020010413527+38847-077035FM-15+0020KDCA V0301805N00365019815MN0144845N5+01175+01115100535ADDAA101000095GA1085+019815999GD14991+0198159GE19MSL   +99999+99999GF199999999999019811999999MA1100545100305REMMET09801/04/20 08:52:02 METAR KDCA 041352Z 18007KT 9SM OVC065 12/11 A2969 RMK AO2 SLP053 T01170111 (BGS)
0326724050137432020010414527+38847-077035FM-15+0020KDCA V0301805N00265022865MN0144845N5+01225+01225100585ADDAA101000025AA203000021AU110020015AW1615GA1085+022865999GD14991+0228659GE19MSL   +99999+99999GF199999999999022861999999MA1100585100345MD1190049+9999MW1615REMMET12601/04/20 09:52:02 METAR KDCA 041452Z 18005KT 9SM -RA OVC075 12/12 A2970 RMK AO2 RAB49 SLP058 P0000 60000 T01220122 51004 (BGS)EQDQ01  00002PRCP03Q02  00008PRCP03
0198724050137432020010415004+38850-077033FM-12+002099999V0201801N002619999999N014000199+01221+01221100581ADDAA103000021GA1999+022501999GE19MSL   +99999+99999GF108991999999022501999999MA1999999100361MD1110041+9999MW1611REMSYN07672405 11864 81805 10122 20122 30036 40058 51004 69907 761// 91452 555 90415=
0308724050137432020010415527+38847-077035FM-15+0020KDCA V0301905N00155022865MN0128755N5+01285+01285100505ADDAA101000025AU101002015AW1311GA1075+022865999GA2085+027435999GD13991+0228659GD24991+0274359GE19MSL   +99999+99999GF199999999999022861999999MA1100515100275REMMET14301/04/20 10:52:02 METAR KDCA 041552Z 19003KT 8SM MIFG BKN075 OVC090 13/13 A2968 RMK AO2 RAE06 SLP050 MIFG ALG RIVER NE-SE P0000 T01280128 (BGS)
0278724050137432020010416247+38847-077035FM-16+0020KDCA V0301805N00265021345MN0128755N5+01285+01225999999ADDAU101002015AW1311GA1025+001835999GA2085+021345999GD11991+0018359GD24991+0213459GE19MSL   +99999+99999GF199999999999001831999999MA1100415100175REMMET12401/04/20 11:24:02 SPECI KDCA 041624Z 18005KT 8SM MIFG FEW006 OVC070 13/12 A2965 RMK AO2 MIFG ALG RIVER NE-SE T01280122 (BGS)
0324724050137432020010416527+38847-077035FM-15+0020KDCA V0301905N00155022865MN0096565N5+01285+01285100365ADDAA101000095AU101002015AW1311ED101U09149GA1045+001835999GA2085+022865999GD12991+0018359GD24991+0228659GE19MSL   +99999+99999GF199999999999001831999999MA1100375100135REMMET14801/04/20 11:52:02 METAR KDCA 041652Z 19003KT 6SM R01/3000VP6000FT MIFG SCT006 OVC075 13/13 A2964 RMK AO2 SLP036 MIFG ALG RIVER NE-SE T01280128 (BGS)
0371724050137432020010417527+38847-077035FM-15+0020KDCA V0309999C00005024385MN0144845N5+01395+01335100235ADDAA101000095AA206000021AU101002015AW1311GA1025+001835999GA2085+024385999GD11991+0018359GD24991+0243859GE19MSL   +99999+99999GF199999999999001831999999KA1060M+01441KA2060N+01001MA1100245100005MD1890369+9999REMMET15501/04/20 12:52:02 METAR KDCA 041752Z 00000KT 9SM MIFG FEW006 OVC080 14/13 A2960 RMK AO2 SLP023 MIFG NE-SE ALG RIVER 60000 T01390133 10144 20100 58036 (BGS)
0228724050137432020010418004+38850-077033FM-12+002099999V0209999C000019999999N014000199+01391+01331100231ADDAA106000021GA1999+001501999GE19MSL   +99999+99999GF108991999999001501999999KA1120M+01441KA2120N+00941MA1999999100021MD1810361+9999REMSYN08672405 11264 80000 10139 20133 30002 40023 58036 69901 91752 333 10144 20094 555 90418=
0296724050137432020010418527+38847-077035FM-15+0020KDCA V0309999C00005021345MN0160935N5+01395+01335100115ADDAA101000095AU101002015AW1311GA1025+002745999GA2085+021345999GD11991+0027459GD24991+0213459GE19MSL   +99999+99999GF199999999999002741999999MA1100105099865REMMET13101/04/20 13:52:02 METAR KDCA 041852Z 00000KT 10SM MIFG FEW009 OVC070 14/13 A2956 RMK AO2 SLP011 MIFG N-NE ALG RIVER T01390133 (BGS)
0258724050137432020010419527+38847-077035FM-15+0020KDCA V0309999C00005022865MN0160935N5+01505+01335100105ADDAA101000095AU101002015AW1311GA1085+022865999GD14991+0228659GE19MSL   +99999+99999GF199999999999022861999999MA1100105099865REMMET12401/04/20 14:52:02 METAR KDCA 041952Z 00000KT 10SM MIFG OVC075 15/13 A2956 RMK AO2 SLP010 MIFG NE-SE ALG RIVER T01500133 (WS)
0408724050137432020010420527+38847-077035FM-15+0020KDCA V0309999C00005019815MN0112655N5+01445+01285100095ADDAA101000395AA203000391AW1311GA1025+003665999GA2025+006105999GA3075+019815999GD11991+0036659GD21991+0061059GD33991+0198159GD43991+0457219GE19MSL   +99999+99999GF199999999999003661999999MA1100105099865MD1690139+9999REMMET16401/04/20 15:52:02 METAR KDCA 042052Z 00000KT 7SM MIFG FEW012 FEW020 BKN065 14/13 A2956 RMK AO2 RAB30E50 SLP009 MIFG NE-SE ALG RIVER P0001 60001 T01440128 56013 (WS)EQDQ01  00028PRCP03
0186724050137432020010421004+38850-077033FM-12+002099999V0209999C000019999999N011000199+01441+01281100091ADDAA103000331GA1999+004501999GE19MSL   +99999+99999GF106991999999004501999999MA1999999099881MD1610131+9999REMSYN07072405 11461 60000 10144 20128 39988 40009 56013 69937 92052 555 90421=
0351724050137432020010421187+38847-077035FM-16+0020KDCA V0303305N00365007625MN0080475N5+01335+01225999999ADDAA101000231AU110020015AU200001015AW1105AW2615GA1025+003665999GA2075+007625999GA3085+019815999GD11991+0036659GD23991+0076259GD34991+0198159GE19MSL   +99999+99999GF199999999999003661999999MA1100175099935MW1615REMMET13201/04/20 16:18:02 SPECI KDCA 042118Z 33007KT 5SM -RA BR FEW012 BKN025 OVC065 13/12 A2958 RMK AO2 RAB2056 PRESRR P0001 T01330122 (WS)
0355724050137432020010421267+38847-077035FM-16+0020KDCA V0303305N00675007625MN0048285N5+01395+01225999999ADDAA101001531AU130020015AU200001015AW1105AW2635GA1045+005185999GA2075+007625999GA3085+018295999GD12991+0051859GD23991+0076259GD34991+0182959GE19MSL   +99999+99999GF199999999999005181999999MA1100175099935MW1635REMMET13601/04/20 16:26:02 SPECI KDCA 042126Z 33013KT 3SM +RA BR SCT017 BKN025 OVC060 14/12 A2958 RMK AO2 RAB2056 VIS E-SE 2 P0006 T01390122 (WS)
0393724050137432020010421527+38847-077035FM-15+0020KDCA V0303205N00575007625MN0048285N5+01175+01005100275ADDAA101004695AU120020015AU200001015AW1105AW2625GA1025+005185999GA2075+007625999GA3085+015245999GD11991+0051859GD23991+0076259GD34991+0152459GE19MSL   +99999+99999GF199999999999005181999999MA1100275100035MW1655OD149901331320REMMET16001/04/20 16:52:02 METAR KDCA 042152Z 32011KT 3SM RA BR FEW017 BKN025 OVC050 12/10 A2961 RMK AO2 PK WND 32026/2139 RAB2056 SLP027 VIS E-SE 2 P0017 T01170100 (WS)
0327724050137432020010422267+38847-077035FM-16+0020KDCA V0303405N00725019815MN0128755N5+01115+00895999999ADDAA101001031AU110020015AW1615GA1025+007625999GA2075+019815999GA3085+030485999GD11991+0076259GD23991+0198159GD34991+0304859GE19MSL   +99999+99999GF199999999999007621999999MA1100275100035MW1615OC101085REMMET11701/04/20 17:26:02 SPECI KDCA 042226Z 34014G21KT 8SM -RA FEW025 BKN065 OVC100 11/09 A2961 RMK AO2 P0004 T01110089 (WS)
0323724050137432020010422527+38847-077035FM-15+0020KDCA V0303505N00625019815MN0128755N5+01065+00835100315ADDAA101001395AU110020015AW1615GA1025+007625999GA2075+019815999GA3085+030485999GD11991+0076259GD23991+0198159GD34991+0304859GE19MSL   +99999+99999GF199999999999007621999999MA1100305100075MW1615REMMET12101/04/20 17:52:02 METAR KDCA 042252Z 35012KT 8SM -RA FEW025 BKN065 OVC100 11/08 A2962 RMK AO2 SLP031 P0005 T01060083 (WS)
0342724050137432020010423527+38847-077035FM-15+0020KDCA V0303505N00415018295MN0160935N5+01005+00785100365ADDAA101001395AA206007491AU110020015AW1615GA1085+018295999GD14991+0182959GE19MSL   +99999+99999GF199999999999018291999999KA1060M+01501KA2060N+01001MA1100375100135MD1190269+9999MW1615REMMET13201/04/20 18:52:02 METAR KDCA 042352Z 35008KT 10SM -RA OVC060 10/08 A2964 RMK AO2 SLP036 P0006 60029 T01000078 10150 20100 51026 (WS)EQDQ01  00738PRCP06
0240724050137432020010500004+38850-077033FM-12+002099999V0203501N004119999999N016000199+01001+00781100361ADDAA106007031GA1999+017501999GE19MSL   +99999+99999GF108991999999017501999999KA1120M+01501KA2120N+01001MA1999999100151MD1110261+9999MW1611REMSYN09272405 11766 83508 10100 20078 30015 40036 51026 60071 761// 92352 333 10150 20100 555 90500=
0222724050137432020010500527+38847-077035FM-15+0020KDCA V0303305N00415025915MN0160935N5+01005+00725100405ADDAA101000025GA1085+025915999GD14991+0259159GE19MSL   +99999+99999GF199999999999025911999999MA1100415100175REMMET10501/04/20 19:52:01 METAR KDCA 050052Z 33008KT 10SM OVC085 10/07 A2965 RMK AO2 RAE04 SLP040 P0000 T01000072
0248724050137432020010501527+38847-077035FM-15+0020KDCA V0303405N00675027435MN0160935N5+00945+00565100485ADDAA101000095GA1025+013725999GA2085+027435999GD11991+0137259GD24991+0274359GE19MSL   +99999+99999GF199999999999013721999999MA1100475100245REMMET10001/04/20 20:52:01 METAR KDCA 050152Z 34013KT 10SM FEW045 OVC090 09/06 A2967 RMK AO2 SLP048 T00940056
0334724050137432020010502527+38847-077035FM-15+0020KDCA V0303205N00725033535MN0160935N5+00945+00395100565ADDAA101000095AA203000021GA1025+010975999GA2045+013415999GA3085+033535999GD11991+0109759GD22991+0134159GD34991+0335359GE19MSL   +99999+99999GF199999999999010971999999MA1100585100345MD1390209+9999OC101085REMMET12201/04/20 21:52:01 METAR KDCA 050252Z 32014G21KT 10SM FEW036 SCT044 OVC110 09/04 A2970 RMK AO2 SLP056 60000 T00940039 53020
0210724050137432020010503004+38850-077033FM-12+002099999V0203201N007219999999N016000199+00941+00391100561ADDAA103000021GA1999+012501999GE19MSL   +99999+99999GF108991999999012501999999MA1999999100361MD1310201+9999OD149901081999REMSYN08072405 12666 83214 10094 20039 30036 40056 53020 69907 90252 333 91021 555 90503=
0297724050137432020010503527+38847-077035FM-15+0020KDCA V0303305N00725016765MN0160935N5+00835+00225100675ADDAA101000095GA1025+011585999GA2075+016765999GA3085+027435999GD11991+0115859GD23991+0167659GD34991+0274359GE19MSL   +99999+99999GF199999999999011581999999MA1100685100445OC101245REMMET11001/04/20 22:52:01 METAR KDCA 050352Z 33014G24KT 10SM FEW038 BKN055 OVC090 08/02 A2973 RMK AO2 SLP067 T00830022
0365724050137432020010504527+38847-077035FM-15+0020KDCA V0303205N00675033535MN0160935N5+00785+00065100705ADDAA101000095GA1025+016765999GA2045+022865999GA3085+033535999GD11991+0167659GD22991+0228659GD34991+0335359GE19MSL   +99999+99999GF199999999999016761999999KA1240M+01501KA2240N+00781MA1100715100475OC101245OD149901391330REMMET13801/04/20 23:52:02 METAR KDCA 050452Z 32013G24KT 10SM FEW055 SCT075 OVC110 08/01 A2974 RMK AO2 PK WND 33027/0440 SLP070 T00780006 401500078
1114724050137432020010504596+38847-077035SOD  +0020KDCA V030999999999999999999999999999+99999+99999999999ADDAA124007995AJ100009599999999AN1024000095AT1AU16RA  5AT2AU01FG  5AT3AU21MIFG5AT4AU13BR  5AX1016246AX2026246KA1240M+01505KA2240N+00785KG1024W+0106D4KG2024D+0100D4MF1100244100474MG1100244100074OE11240138633099995OE22240107332099995OE33240029199999995RH1024X100D4RH2024N061D4RH3024M090D4REMSOD78424 HR PRECIPITATION (IN): 0.31 SNOW DEPTH (IN):0     24 HR SNOWFALL (IN):0.0  WEATHER(CODE):12  24 HR MAX TEMP (F): 5924 HR MIN TEMP (F): 46AVERAGE STATION PRESSURE:29.600 MINIMUM SEA LEVEL PRESSURE:29.55 TIME OF OCCURRENCE:1556 PEAK WIND SPEED (MPH): 31 PEAK WIND DIR (DEG):330 PEAK WIND TIME (LST):      FASTEST 2MIN SPEED (MPH): 24FASTEST 2MIN DIR (DEG):320 FASTEST 2MIN TIME (LST):     AVERAGE WIND SPEED (MPH): 6.5 24 HR AVG TEMP (F): 53DEPART FROM NORMAL: 17  SKY COVER SR-SS (TENTHS): 1HEATING DEGREE DAYS: 12 COOLING DEGREE DAYS:  0 LATEST DAY MAX TEMP (0700-1900 LST):59  LATEST NIGHT MIN TEMP(1900-0800 LST):49 HOURLY INCREMENTAL PRECIPITATION VALUES (IN):    0.01 0.01 T    T    T    T    0.00 0.00 T    T    0.00 0.00 0.00 0.00 0.01 0.18 0.05 0.05 T    0.00 0.00 0.00 0.00EQDR01    127AXW090R02    127AXW090
0367724050137432020010505527+38847-077035FM-15+0020KDCA V0303305N00675012805MN0160935N5+00725+00005100795ADDAA101000095AA206000021GA1075+012805999GA2075+015245999GA3085+076205999GD13991+0128059GD23991+0152459GD34991+0762059GE19MSL   +99999+99999GF199999999999012801999999KA1060M+01061KA2060N+00721MA1100815100575MD1190239+9999REMMET13701/05/20 00:52:02 METAR KDCA 050552Z 33013KT 10SM BKN042 BKN050 OVC250 07/00 A2977 RMK AO2 SLP079 60000 T00720000 10106 20072 51023 (CES)
0228724050137432020010506004+38850-077033FM-12+002099999V0203301N006719999999N016000199+00721+00001100791ADDAA106000021GA1999+012501999GE19MSL   +99999+99999GF108991999999012501999999KA1240M+01171KA2240N+00721MA1999999100591MD1110231+9999REMSYN08672405 12666 83313 10072 20000 30059 40079 51023 69901 90552 333 10117 20072 555 90506=
0254724050137432020010506527+38847-077035FM-15+0020KDCA V0303205N00415012195MN0160935N5+00675+00005100935ADDAA101000095GA1075+012195999GA2085+015245999GD13991+0121959GD24991+0152459GE19MSL   +99999+99999GF199999999999012191999999MA1100955100715REMMET10601/05/20 01:52:02 METAR KDCA 050652Z 32008KT 10SM BKN040 OVC050 07/00 A2981 RMK AO2 SLP093 T00670000 (CES)
0260724050137432020010507527+38847-077035FM-15+0020KDCA V0303105N00775013725MN0160935N5+00675-00115101085ADDAA101000095GA1085+013725999GD14991+0137259GE19MSL   +99999+99999GF199999999999013721999999MA1101085100845OC101295OD149901331330REMMET12101/05/20 02:52:02 METAR KDCA 050752Z 31015G25KT 10SM OVC045 07/M01 A2985 RMK AO2 PK WND 33026/0717 SLP108 T00671011 (CES)
0356724050137432020010508527+38847-077035FM-15+0020KDCA V0303005N00625018295MN0160935N5+00615-00115101175ADDAA101000095GA1025+012805999GA2045+015245999GA3085+018295999GD11991+0128059GD22991+0152459GD34991+0182959GE19MSL   +99999+99999GF199999999999012801999999MA1101195100955MD1190379+9999OC100935OD149901491300REMMET14101/05/20 03:52:02 METAR KDCA 050852Z 30012G18KT 10SM FEW042 SCT050 OVC060 06/M01 A2988 RMK AO2 PK WND 30029/0824 SLP117 T00611011 51037 (CES)
0193724050137432020010509004+38850-077033FM-12+002099999V0203001N006219999999N016000199+00611-00111101171ADDGA1999+012501999GE19MSL   +99999+99999GF108991999999012501999999MA1999999100961MD1110371+9999OD149900931999REMSYN07472405 32666 83012 10061 21011 30096 40117 51037 90852 333 91018 555 90509=
0260724050137432020010509527+38847-077035FM-15+0020KDCA V0303105N00985016765MN0160935N5+00565-00395101295ADDAA101000095GA1085+016765999GD14991+0167659GE19MSL   +99999+99999GF199999999999016761999999MA1101295101055OC101495OD149901751320REMMET12101/05/20 04:52:02 METAR KDCA 050952Z 31019G29KT 10SM OVC055 06/M04 A2991 RMK AO2 PK WND 32034/0924 SLP129 T00561039 (CES)
0260724050137432020010510527+38847-077035FM-15+0020KDCA V0303105N00575014335MN0160935N5+00505-00445101455ADDAA101000095GA1085+014335999GD14991+0143359GE19MSL   +99999+99999GF199999999999014331999999MA1101465101225OC101245OD149901541310REMMET12101/05/20 05:52:02 METAR KDCA 051052Z 31011G24KT 10SM OVC047 05/M04 A2996 RMK AO2 PK WND 31030/0953 SLP145 T00501044 (CES)
0335724050137432020010511527+38847-077035FM-15+0020KDCA V0303105N00825013725MN0160935N5+00395-00505101585ADDAA101000095AA224007491GA1075+013725999GD13991+0137259GE19MSL   +99999+99999GF199999999999013721999999KA1060M+00721KA2060N+00391MA1101595101355MD1390429+9999OC101445OD149901901330REMMET14501/05/20 06:52:02 METAR KDCA 051152Z 31016G28KT 10SM BKN045 04/M05 A3000 RMK AO2 PK WND 33037/1138 SLP158 70029 T00391050 10072 20039 53042 (CES)
0248724050137432020010512004+38850-077033FM-12+002099999V0203101N008219999999N016000199+00391-00501101581ADDAA124007431GA1999+012501999GE19MSL   +99999+99999GF106991999999012501999999KA1240M+01501KA2240N+00391MA1999999101371MD1310421+9999OD149901441999REMSYN09272405 32666 63116 10039 21050 30137 40158 53042 91152 333 10150 20039 70074 91028 555 90512=
0260724050137432020010512527+38847-077035FM-15+0020KDCA V0303205N00775013725MN0160935N5+00395-00565101675ADDAA101000095GA1075+013725999GD13991+0137259GE19MSL   +99999+99999GF199999999999013721999999MA1101695101455OC101185OD149901331330REMMET12101/05/20 07:52:02 METAR KDCA 051252Z 32015G23KT 10SM BKN045 04/M06 A3003 RMK AO2 PK WND 33026/1227 SLP167 T00391056 (CEC)
0217724050137432020010513527+38847-077035FM-15+0020KDCA V0303205N00465013725MN0160935N5+00445-00395101775ADDAA101000095GA1075+013725999GD13991+0137259GE19MSL   +99999+99999GF199999999999013721999999MA1101795101555REMMET10001/05/20 08:52:02 METAR KDCA 051352Z 32009KT 10SM BKN045 04/M04 A3006 RMK AO2 SLP177 T00441039 (CEC)
0280724050137432020010514527+38847-077035FM-15+0020KDCA V0303205N00825014635MN0160935N5+00565-00565101865ADDAA101000095GA1075+014635999GD13991+0146359GE19MSL   +99999+99999GF199999999999014631999999MA1101865101625MD1290279+9999OC101495OD149901591320REMMET12701/05/20 09:52:02 METAR KDCA 051452Z 32016G29KT 10SM BKN048 06/M06 A3008 RMK AO2 PK WND 32031/1408 SLP186 T00561056 52027 (CEC)
0193724050137432020010515004+38850-077033FM-12+002099999V0203201N008219999999N016000199+00561-00561101861ADDGA1999+012501999GE19MSL   +99999+99999GF106991999999012501999999MA1999999101641MD1210271+9999OD149901491999REMSYN07472405 32666 63216 10056 21056 30164 40186 52027 91452 333 91029 555 90515=
0260724050137432020010515527+38847-077035FM-15+0020KDCA V0303005V00885015245MN0160935N5+00565-00505101895ADDAA101000095GA1075+015245999GD13991+0152459GE19MSL   +99999+99999GF199999999999015241999999MA1101905101665OC101395OD149901591320REMMET12101/05/20 10:52:02 METAR KDCA 051552Z 30017G27KT 10SM BKN050 06/M05 A3009 RMK AO2 PK WND 32031/1515 SLP189 T00561050 (CEC)
0260724050137432020010516527+38847-077035FM-15+0020KDCA V0302905N00725014635MN0160935N5+00565-00505101875ADDAA101000095GA1075+014635999GD13991+0146359GE19MSL   +99999+99999GF199999999999014631999999MA1101905101665OC101245OD149901591300REMMET12101/05/20 11:52:02 METAR KDCA 051652Z 29014G24KT 10SM BKN048 06/M05 A3009 RMK AO2 PK WND 30031/1556 SLP187 T00561050 (CEC)
0286724050137432020010517527+38847-077035FM-15+0020KDCA V0303105N00885013415MN0160935N5+00505-00445101825ADDAA101000095GA1085+013415999GD14991+0134159GE19MSL   +99999+99999GF199999999999013411999999KA1060M+00611KA2060N+00331MA1101835101595MD1890049+9999OC101295REMMET12101/05/20 12:52:02 METAR KDCA 051752Z 31017G25KT 10SM OVC044 05/M04 A3007 RMK AO2 SLP182 T00501044 10061 20033 58004 (CEC)
0231724050137432020010518004+38850-077033FM-12+002099999V0203101N008819999999N016000199+00501-00441101821ADDGA1999+012501999GE19MSL   +99999+99999GF108991999999012501999999KA1120M+00721KA2120N+00331MA1999999101611MD1810041+9999OD149901291999REMSYN08672405 32666 83117 10050 21044 30161 40182 58004 91752 333 10072 20033 91025 555 90518=
0228724050137432020010518527+38847-077035FM-15+0020KDCA V0303105N00575014635MN0160935N5+00505-00505101885ADDAA101000095GA1085+014635999GD14991+0146359GE19MSL   +99999+99999GF199999999999014631999999MA1101905101665OC101135REMMET10301/05/20 13:52:02 METAR KDCA 051852Z 31011G22KT 10SM OVC048 05/M05 A3009 RMK AO2 SLP188 T00501050 (CEC)
0227724050137432020010519527+38847-077035FM-15+0020KDCA V0302805N00625014335MN0160935N5+00615-00445101875ADDAA101000095GA1075+014335999GD13991+0143359GE19MSL   +99999+99999GF199999999999014331999999MA1101865101625OC100935REMMET10201/05/20 14:52:02 METAR KDCA 051952Z 28012G18KT 10SM BKN047 06/M04 A3008 RMK AO2 SLP187 T00611044 (JV)
0266724050137432020010520527+38847-077035FM-15+0020KDCA V0303105N006752200059N0160935N5+00565-00505101895ADDAA101000095GA1045+014335999GD12991+0143359GE19AGL   +99999+99999GF104995999999014331999999MA1101905101665MD1190079+9999OC101135REMMET10801/05/20 15:52:02 METAR KDCA 052052Z 31013G22KT 10SM SCT047 06/M05 A3009 RMK AO2 SLP189 T00561050 51007 (JV)EQDD01      0ADE726
0193724050137432020010521004+38850-077033FM-12+002099999V0203101N006712200019N016000199+00561-00501101891ADDGA1999+012501999GE19MSL   +99999+99999GF104991999999012501999999MA1999999101671MD1110071+9999OD149901131999REMSYN07472405 32666 43113 10056 21050 30167 40189 51007 92052 333 91022 555 90521=
0273724050137432020010521527+38847-077035FM-15+0020KDCA V0303205N004652200059N0160935N5+00445-00445101895ADDAA101000095GA1025+014335999GA2025+018295999GD11991+0143359GD21991+0182959GE19AGL   +99999+99999GF102995999999014331999999MA1101905101665REMMET10601/05/20 16:52:02 METAR KDCA 052152Z 32009KT 10SM FEW047 FEW060 04/M04 A3009 RMK AO2 SLP189 T00441044 (JV)EQDD01      0ADE726
0273724050137432020010522527+38847-077035FM-15+0020KDCA V0303405N003652200059N0160935N5+00395-00445101865ADDAA101000095GA1025+015245999GA2025+021345999GD11991+0152459GD21991+0213459GE19AGL   +99999+99999GF102995999999015241999999MA1101865101625REMMET10601/05/20 17:52:02 METAR KDCA 052252Z 34007KT 10SM FEW050 FEW070 04/M04 A3008 RMK AO2 SLP186 T00391044 (JV)EQDD01      0ADE726
0293724050137432020010523527+38847-077035FM-15+0020KDCA V0303505N003652200059N0160935N5+00335-00445101875ADDAA101000095GA1025+016765999GD11991+0167659GE19AGL   +99999+99999GF102995999999016761999999KA1060M+00671KA2060N+00331MA1101865101625MD1590039+9999REMMET11701/05/20 18:52:02 METAR KDCA 052352Z 35007KT 10SM FEW055 03/M04 A3008 RMK AO2 SLP187 T00331044 10067 20033 55003 (JV)EQDD01      0ADE726
0211724050137432020010600004+38850-077033FM-12+002099999V0203501N003612200019N016000199+00331-00441101871ADDGA1999+017501999GE19MSL   +99999+99999GF102991999999017501999999KA1120M+00671KA2120N+00331MA1999999101641MD1510031+9999REMSYN08072405 32766 23507 10033 21044 30164 40187 55003 92352 333 10067 20033 555 90600=
0230724050137432020010600527+38847-077035FM-15+0020KDCA V0303405N001552200059N0160935N5+00335-00445101905ADDAA101000095GA1025+018295999GD11991+0182959GE19AGL   +99999+99999GF102995999999018291999999MA1101905101665REMMET09401/05/20 19:52:01 METAR KDCA 060052Z 34003KT 10SM FEW060 03/M04 A3009 RMK AO2 SLP190 T00331044EQDD01      0ADE726
0249724050137432020010601527+38847-077035FM-15+0020KDCA V0301905N00265048775MN0160935N5+00285-00335101785ADDAA101000095GA1025+019815999GA2075+048775999GD11991+0198159GD23991+0487759GE19MSL   +99999+99999GF199999999999019811999999MA1101795101555REMMET10101/05/20 20:52:01 METAR KDCA 060152Z 19005KT 10SM FEW065 BKN160 03/M03 A3006 RMK AO2 SLP178 T00281033
0269724050137432020010602527+38847-077035FM-15+0020KDCA V0301605N00265042675MN0160935N5+00225-00285101695ADDAA101000095GA1025+021345999GA2075+042675999GD11991+0213459GD23991+0426759GE19MSL   +99999+99999GF199999999999021341999999MA1101695101455MD1890189+9999REMMET10701/05/20 21:52:01 METAR KDCA 060252Z 16005KT 10SM FEW070 BKN140 02/M03 A3003 RMK AO2 SLP169 T00221028 58018
0169724050137432020010603004+38850-077033FM-12+002099999V0201601N002619999999N016000199+00221-00281101691ADDGA1999+022501999GE19MSL   +99999+99999GF106991999999022501999999MA1999999101471MD1810181+9999REMSYN06472405 32866 61605 10022 21028 30147 40169 58018 90252 555 90603=
0287724050137432020010603527+38847-077035FM-15+0020KDCA V0301905N00215039625MN0160935N5+00225-00285101735ADDAA101000095GA1025+028965999GA2075+039625999GA3085+076205999GD11991+0289659GD23991+0396259GD34991+0762059GE19MSL   +99999+99999GF199999999999028961999999MA1101765101525REMMET10801/05/20 22:52:01 METAR KDCA 060352Z 19004KT 10SM FEW095 BKN130 OVC250 02/M03 A3005 RMK AO2 SLP173 T00221028
0338724050137432020010604527+38847-077035FM-15+0020KDCA V0309999C000052200059N0160935N5+00285-00225101695ADDAA101000095GA1025+027435999GA2045+033535999GA3045+048775999GD11991+0274359GD22991+0335359GD32991+0487759GD43991+0762019GE19MSL   +99999+99999GF199999999999027431999999KA1240M+00781KA2240N+00221MA1101695101455REMMET11801/05/20 23:52:02 METAR KDCA 060452Z 00000KT 10SM FEW090 SCT110 SCT160 03/M02 A3003 RMK AO2 SLP169 T00281022 400780022
0968724050137432020010604596+38847-077035SOD  +0020KDCA V030999999999999999999999999999+99999+99999999999ADDAA124000095AJ100009599999999AN1024000095KA1240M+00785KA2240N+00225KG1024W+0017D4KG2024D-0039D4MF1101294101634MG1101274100684OE11240192233099995OE22240147532099995OE33240055499999995RH1024X070D4RH2024N045D4RH3024M055D4REMSOD73924 HR PRECIPITATION (IN): 0.00 SNOW DEPTH (IN):0     24 HR SNOWFALL (IN):0.0  24 HR MAX TEMP (F): 4624 HR MIN TEMP (F): 36AVERAGE STATION PRESSURE:29.905 MINIMUM SEA LEVEL PRESSURE:29.73 TIME OF OCCURRENCE:0025 PEAK WIND SPEED (MPH): 43 PEAK WIND DIR (DEG):330 PEAK WIND TIME (LST):      FASTEST 2MIN SPEED (MPH): 33FASTEST 2MIN DIR (DEG):320 FASTEST 2MIN TIME (LST):     AVERAGE WIND SPEED (MPH):12.4 24 HR AVG TEMP (F): 41DEPART FROM NORMAL:  5  HEATING DEGREE DAYS: 24 COOLING DEGREE DAYS:  0 LATEST DAY MAX TEMP (0700-1900 LST):44  LATEST NIGHT MIN TEMP(1900-0800 LST):38 HOURLY INCREMENTAL PRECIPITATION VALUES (IN):.00 0.00 0.00 0.00 0.00 0.00 0.00 0.00 0.00 0.00 0.00 0.00 0.00 0.00 0.00 0.00 0.00 0.00 0.00 0.00 0.00 0.00 0.00 0.00
0351724050137432020010605527+38847-077035FM-15+0020KDCA V0301405N00215019815MN0160935N5+00225-00335101595ADDAA101000095GA1075+019815999GA2075+033535999GA3085+076205999GD13991+0198159GD23991+0335359GD34991+0762059GE19MSL   +99999+99999GF199999999999019811999999KA1060M+00331KA2060N+00221MA1101595101355MD1890109+9999REMMET13201/06/20 00:52:02 METAR KDCA 060552Z 14004KT 10SM BKN065 BKN110 OVC250 02/M03 A3000 RMK AO2 SLP159 T00221033 10033 20022 58010 (JDH)
0211724050137432020010606004+38850-077033FM-12+002099999V0201401N002119999999N016000199+00221-00331101591ADDGA1999+017501999GE19MSL   +99999+99999GF108991999999017501999999KA1240M+00721KA2240N+00221MA1999999101371MD1810101+9999REMSYN08072405 32766 81404 10022 21033 30137 40159 58010 90552 333 10072 20022 555 90606=
0217724050137432020010606527+38847-077035FM-15+0020KDCA V0301605N00215019815MN0160935N5+00285-00335101515ADDAA101000095GA1085+019815999GD14991+0198159GE19MSL   +99999+99999GF199999999999019811999999MA1101525101285REMMET10001/06/20 01:52:02 METAR KDCA 060652Z 16004KT 10SM OVC065 03/M03 A2998 RMK AO2 SLP151 T00281033 (JDH)
0217724050137432020010607527+38847-077035FM-15+0020KDCA V0302005N00265016765MN0160935N5+00285-00285101525ADDAA101000095GA1085+016765999GD14991+0167659GE19MSL   +99999+99999GF199999999999016761999999MA1101525101285REMMET10001/06/20 02:52:02 METAR KDCA 060752Z 20005KT 10SM OVC055 03/M03 A2998 RMK AO2 SLP152 T00281028 (JDH)
0237724050137432020010608527+38847-077035FM-15+0020KDCA V0302005N00265016765MN0160935N5+00285-00225101555ADDAA101000095GA1085+016765999GD14991+0167659GE19MSL   +99999+99999GF199999999999016761999999MA1101565101325MD1590049+9999REMMET10601/06/20 03:52:02 METAR KDCA 060852Z 20005KT 10SM OVC055 03/M02 A2999 RMK AO2 SLP155 T00281022 55004 (JDH)
0169724050137432020010609004+38850-077033FM-12+002099999V0202001N002619999999N016000199+00281-00221101551ADDGA1999+017501999GE19MSL   +99999+99999GF108991999999017501999999MA1999999101341MD1510041+9999REMSYN06472405 32766 82005 10028 21022 30134 40155 55004 90852 555 90609=
0217724050137432020010609527+38847-077035FM-15+0020KDCA V0302105N00265018295MN0160935N5+00285-00225101605ADDAA101000095GA1085+018295999GD14991+0182959GE19MSL   +99999+99999GF199999999999018291999999MA1101595101355REMMET10001/06/20 04:52:02 METAR KDCA 060952Z 21005KT 10SM OVC060 03/M02 A3000 RMK AO2 SLP160 T00281022 (JDH)
0217724050137432020010610527+38847-077035FM-15+0020KDCA V0301905N00315018295MN0160935N5+00335-00115101595ADDAA101000095GA1085+018295999GD14991+0182959GE19MSL   +99999+99999GF199999999999018291999999MA1101595101355REMMET10001/06/20 05:52:02 METAR KDCA 061052Z 19006KT 10SM OVC060 03/M01 A3000 RMK AO2 SLP159 T00331011 (JDH)
0275724050137432020010611527+38847-077035FM-15+0020KDCA V0302105N00265018295MN0160935N5+00335-00115101615ADDAA101000095GA1085+018295999GD14991+0182959GE19MSL   +99999+99999GF199999999999018291999999KA1060M+00331KA2060N+00171MA1101635101385MD1190059+9999REMMET11801/06/20 06:52:02 METAR KDCA 061152Z 21005KT 10SM OVC060 03/M01 A3001 RMK AO2 SLP161 T00331011 10033 20017 51005 (BGS)
0211724050137432020010612004+38850-077033FM-12+002099999V0202101N002619999999N016000199+00331-00111101611ADDGA1999+017501999GE19MSL   +99999+99999GF108991999999017501999999KA1240M+00781KA2240N+00171MA1999999101401MD1110051+9999REMSYN08072405 32766 82105 10033 21011 30140 40161 51005 91152 333 10078 20017 555 90612=
0217724050137432020010612527+38847-077035FM-15+0020KDCA V0302005N00415018295MN0160935N5+00395-00175101675ADDAA101000095GA1075+018295999GD13991+0182959GE19MSL   +99999+99999GF199999999999018291999999MA1101695101455REMMET10001/06/20 07:52:02 METAR KDCA 061252Z 20008KT 10SM BKN060 04/M02 A3003 RMK AO2 SLP167 T00391017 (BGS)
0236724050137432020010613527+38847-077035FM-15+0020KDCA V0302005N004152200059N0160935N5+00505-00115101735ADDAA101000095GA1045+018295999GD12991+0182959GE19AGL   +99999+99999GF104995999999018291999999MA1101765101525REMMET10001/06/20 08:52:02 METAR KDCA 061352Z 20008KT 10SM SCT060 05/M01 A3005 RMK AO2 SLP173 T00501011 (BGS)EQDD01      0ADE726
0255724050137432020010614527+38847-077035FM-15+0020KDCA V0301705N004652200059N0160935N5+00675+00065101795ADDAA101000095GA1025+018295999GD11991+0182959GE19AGL   +99999+99999GF102995999999018291999999MA1101795101555MD1190189+9999REMMET10501/06/20 09:52:02 METAR KDCA 061452Z 17009KT 10SM FEW060 07/01 A3006 RMK AO2 SLP179 T00670006 51018 (BGS)EQDD01      0ADE726
0169724050137432020010615004+38850-077033FM-12+002099999V0201701N004612200019N016000199+00671+00061101791ADDGA1999+017501999GE19MSL   +99999+99999GF102991999999017501999999MA1999999101571MD1110181+9999REMSYN06472405 32766 21709 10067 20006 30157 40179 51018 91452 555 90615=
0274724050137432020010615527+38847-077035FM-15+0020KDCA V0302205N004152200059N0160935N5+01005-00065101785ADDAA101000095GA1045+019815999GA2045+060965999GD12991+0198159GD22991+0609659GE19AGL   +99999+99999GF104995999999019811999999MA1101795101555REMMET10701/06/20 10:52:02 METAR KDCA 061552Z 22008KT 10SM SCT065 SCT200 10/M01 A3006 RMK AO2 SLP178 T01001006 (BGS)EQDD01      0ADE726
0285724050137432020010616527+38847-077035FM-15+0020KDCA V0302405N007752200059N0160935N5+01175-00175101725ADDAA101000095GA1045+018295999GA2045+060965999GD12991+0182959GD22991+0609659GE19AGL   +99999+99999GF104995999999018291999999MA1101735101495OC100985REMMET11001/06/20 11:52:02 METAR KDCA 061652Z 24015G19KT 10SM SCT060 SCT200 12/M02 A3004 RMK AO2 SLP172 T01171017 (BGS)EQDD01      0ADE726
0294724050137432020010617527+38847-077035FM-15+0020KDCA V0302605N004152200059N0160935N5+01225-00175101675ADDAA101000095GA1045+018295999GD12991+0182959GE19AGL   +99999+99999GF104995999999018291999999KA1060M+01221KA2060N+00331MA1101695101455MD1890129+9999REMMET11801/06/20 12:52:02 METAR KDCA 061752Z 26008KT 10SM SCT060 12/M02 A3003 RMK AO2 SLP167 T01221017 10122 20033 58012 (BGS)EQDD01      0ADE726
0211724050137432020010618004+38850-077033FM-12+002099999V0202601N004112200019N016000199+01221-00171101671ADDGA1999+017501999GE19MSL   +99999+99999GF104991999999017501999999KA1120M+01221KA2120N+00331MA1999999101471MD1810121+9999REMSYN08072405 32766 42608 10122 21017 30147 40167 58012 91752 333 10122 20033 555 90618=
0236724050137432020010618527+38847-077035FM-15+0020KDCA V0302905N005752200059N0160935N5+01285-00445101675ADDAA101000095GA1025+018295999GD11991+0182959GE19AGL   +99999+99999GF102995999999018291999999MA1101665101425REMMET10001/06/20 13:52:02 METAR KDCA 061852Z 29011KT 10SM FEW060 13/M04 A3002 RMK AO2 SLP167 T01281044 (BGS)EQDD01      0ADE726
0284724050137432020010619527+38847-077035FM-15+0020KDCA V0302905N007752200059N0160935N5+01285-00615101725ADDAA101000095GA1025+018295999GA2025+054865999GD11991+0182959GD21991+0548659GE19AGL   +99999+99999GF102995999999018291999999MA1101735101495OC101245REMMET10901/06/20 14:52:02 METAR KDCA 061952Z 29015G24KT 10SM FEW060 FEW180 13/M06 A3004 RMK AO2 SLP172 T01281061 (WS)EQDD01      0ADE726
0211724050137432020010620527+38847-077035FM-15+0020KDCA V0303105N005752200059N0160935N5+01225-00785101805ADDAA101000095GA1005+999999999GD10991+9999999GF100991999999999999999999MA1101795101555MD1390139+9999REMMET10201/06/20 15:52:02 METAR KDCA 062052Z 31011KT 10SM CLR 12/M08 A3006 RMK AO2 SLP180 T01221078 53013 (WS)
0105724050137432020010621004+38850-077033FM-12+002099999V0203101N005719999999N016000199+01221-00781101801ADDMA1999999101571MD1310131+9999REMSYN06472405 32966 03111 10122 21078 30157 40180 53013 92052 555 90621=
0191724050137432020010621527+38847-077035FM-15+0020KDCA V0303205N005752200059N0160935N5+01065-00835101855ADDAA101000095GA1005+999999999GD10991+9999999GF100991999999999999999999MA1101865101625REMMET09601/06/20 16:52:02 METAR KDCA 062152Z 32011KT 10SM CLR 11/M08 A3008 RMK AO2 SLP185 T01061083 (WS)
0191724050137432020010622527+38847-077035FM-15+0020KDCA V0302905N002152200059N0160935N5+00945-00895101935ADDAA101000095GA1005+999999999GD10991+9999999GF100991999999999999999999MA1101935101695REMMET09601/06/20 17:52:02 METAR KDCA 062252Z 29004KT 10SM CLR 09/M09 A3010 RMK AO2 SLP193 T00941089 (WS)
0249724050137432020010623527+38847-077035FM-15+0020KDCA V0303105N003652200059N0160935N5+00895-00835101985ADDAA101000095GA1005+999999999GD10991+9999999GF100991999999999999999999KA1060M+01331KA2060N+00831MA1102005101765MD1190179+9999REMMET11401/06/20 18:52:02 METAR KDCA 062352Z 31007KT 10SM CLR 09/M08 A3012 RMK AO2 SLP198 T00891083 10133 20083 51017 (WS)
0147724050137432020010700004+38850-077033FM-12+002099999V0203101N003619999999N016000199+00891-00831101981ADDKA1120M+01331KA2120N+00171MA1999999101781MD1110171+9999REMSYN08072405 32966 03107 10089 21083 30178 40198 51017 92352 333 10133 20017 555 90700=
0186724050137432020010700527+38847-077035FM-15+0020KDCA V0302905N002652200059N0160935N5+00785-00785102045ADDAA101000095GA1005+999999999GD10991+9999999GF100991999999999999999999MA1102075101825REMMET09101/06/20 19:52:01 METAR KDCA 070052Z 29005KT 10SM CLR 08/M08 A3014 RMK AO2 SLP204 T00781078
0186724050137432020010701527+38847-077035FM-15+0020KDCA V0302905N003152200059N0160935N5+00785-00785102045ADDAA101000095GA1005+999999999GD10991+9999999GF100991999999999999999999MA1102035101795REMMET09101/06/20 20:52:01 METAR KDCA 070152Z 29006KT 10SM CLR 08/M08 A3013 RMK AO2 SLP204 T00781078
0206724050137432020010702527+38847-077035FM-15+0020KDCA V0302505N001552200059N0160935N5+00615-00785102075ADDAA101000095GA1005+999999999GD10991+9999999GF100991999999999999999999MA1102105101865MD1190099+9999REMMET09701/06/20 21:52:01 METAR KDCA 070252Z 25003KT 10SM CLR 06/M08 A3015 RMK AO2 SLP207 T00611078 51009
0105724050137432020010703004+38850-077033FM-12+002099999V0202501N001519999999N016000199+00611-00781102071ADDMA1999999101881MD1110091+9999REMSYN06472405 32966 02503 10061 21078 30188 40207 51009 90252 555 90703=
0230724050137432020010703527+38847-077035FM-15+0020KDCA V0301805N001552200059N0160935N5+00445-00395102065ADDAA101000095GA1025+076205999GD11991+0762059GE19AGL   +99999+99999GF102995999999076201999999MA1102075101825REMMET09401/06/20 22:52:01 METAR KDCA 070352Z 18003KT 10SM FEW250 04/M04 A3014 RMK AO2 SLP206 T00441039EQDD01      0ADE726
0266724050137432020010704527+38847-077035FM-15+0020KDCA V0301805N002652200059N0160935N5+00335-00225102065ADDAA101000095GA1025+076205999GD11991+0762059GE19AGL   +99999+99999GF102995999999076201999999KA1240M+01331KA2240N+00171MA1102075101825REMMET10401/06/20 23:52:02 METAR KDCA 070452Z 18005KT 10SM FEW250 03/M02 A3014 RMK AO2 SLP206 T00331022 401330017EQDD01      0ADE726
0968724050137432020010704596+38847-077035SOD  +0020KDCA V030999999999999999999999999999+99999+99999999999ADDAA124000095AJ100009599999999AN1024000095KA1240M+01335KA2240N+00175KG1024W+0028D4KG2024D-0039D4MF1101464101764MG1101464101494OE11240125224099995OE22240102825099995OE33240036799999995RH1024X073D4RH2024N024D4RH3024M049D4REMSOD73924 HR PRECIPITATION (IN): 0.00 SNOW DEPTH (IN):0     24 HR SNOWFALL (IN):0.0  24 HR MAX TEMP (F): 5624 HR MIN TEMP (F): 35AVERAGE STATION PRESSURE:29.960 MINIMUM SEA LEVEL PRESSURE:29.97 TIME OF OCCURRENCE:0237 PEAK WIND SPEED (MPH): 28 PEAK WIND DIR (DEG):240 PEAK WIND TIME (LST):      FASTEST 2MIN SPEED (MPH): 23FASTEST 2MIN DIR (DEG):250 FASTEST 2MIN TIME (LST):     AVERAGE WIND SPEED (MPH): 8.2 24 HR AVG TEMP (F): 46DEPART FROM NORMAL: 10  HEATING DEGREE DAYS: 19 COOLING DEGREE DAYS:  0 LATEST DAY MAX TEMP (0700-1900 LST):56  LATEST NIGHT MIN TEMP(1900-0800 LST):35 HOURLY INCREMENTAL PRECIPITATION VALUES (IN):.00 0.00 0.00 0.00 0.00 0.00 0.00 0.00 0.00 0.00 0.00 0.00 0.00 0.00 0.00 0.00 0.00 0.00 0.00 0.00 0.00 0.00 0.00 0.00
0294724050137432020010705527+38847-077035FM-15+0020KDCA V0302005N002152200059N0160935N5+00335-00445102055ADDAA101000095GA1025+076205999GD11991+0762059GE19AGL   +99999+99999GF102995999999076201999999KA1060M+00891KA2060N+00221MA1102075101825MD1690029+9999REMMET11801/07/20 00:52:02 METAR KDCA 070552Z 20004KT 10SM FEW250 03/M04 A3014 RMK AO2 SLP205 T00331044 10089 20022 56002 (JDH)EQDD01      0ADE726
0195724050137432020010706004+38850-077033FM-12+002099999V0202001N002112200019N016000199+00331-00441102051ADDGE19MSL   +99999+99999GF102991999999999999999999KA1240M+00891KA2240N+00171MA1999999101841MD1610021+9999REMSYN08072405 32966 22004 10033 21044 30184 40205 56002 90552 333 10089 20017 555 90706=
0236724050137432020010706527+38847-077035FM-15+0020KDCA V0302005N002652200059N0160935N5+00225-00505102045ADDAA101000095GA1025+076205999GD11991+0762059GE19AGL   +99999+99999GF102995999999076201999999MA1102075101825REMMET10001/07/20 01:52:02 METAR KDCA 070652Z 20005KT 10SM FEW250 02/M05 A3014 RMK AO2 SLP204 T00221050 (JDH)EQDD01      0ADE726
0217724050137432020010707527+38847-077035FM-15+0020KDCA V0309999C00005060965MN0160935N5+00225-00445102025ADDAA101000095GA1085+060965999GD14991+0609659GE19MSL   +99999+99999GF199999999999060961999999MA1102035101795REMMET10001/07/20 02:52:02 METAR KDCA 070752Z 00000KT 10SM OVC200 02/M04 A3013 RMK AO2 SLP202 T00221044 (JDH)
0237724050137432020010708527+38847-077035FM-15+0020KDCA V0309999C00005060965MN0160935N5+00175-00395101995ADDAA101000095GA1085+060965999GD14991+0609659GE19MSL   +99999+99999GF199999999999060961999999MA1102005101765MD1890079+9999REMMET10601/07/20 03:52:02 METAR KDCA 070852Z 00000KT 10SM OVC200 02/M04 A3012 RMK AO2 SLP199 T00171039 58007 (JDH)
0153724050137432020010709004+38850-077033FM-12+002099999V0209999C000019999999N016000199+00171-00391101991ADDGE19MSL   +99999+99999GF108991999999999999999999MA1999999101781MD1810071+9999REMSYN06472405 32966 80000 10017 21039 30178 40199 58007 90852 555 90709=
0217724050137432020010709527+38847-077035FM-15+0020KDCA V0309999C00005060965MN0160935N5+00175-00395101905ADDAA101000095GA1085+060965999GD14991+0609659GE19MSL   +99999+99999GF199999999999060961999999MA1101935101695REMMET10001/07/20 04:52:02 METAR KDCA 070952Z 00000KT 10SM OVC200 02/M04 A3010 RMK AO2 SLP190 T00171039 (JDH)
0255724050137432020010710527+38847-077035FM-15+0020KDCA V0309999C00005060965MN0160935N5+00115-00285101905ADDAA101000095GA1025+048775999GA2075+060965999GD11991+0487759GD23991+0609659GE19MSL   +99999+99999GF199999999999048771999999MA1101935101695REMMET10701/07/20 05:52:02 METAR KDCA 071052Z 00000KT 10SM FEW160 BKN200 01/M03 A3010 RMK AO2 SLP190 T00111028 (JDH)
0320724050137432020010711527+38847-077035FM-15+0020KDCA V0301205N00215042675MN0160935N5+00225-00175101795ADDAA101000095GA1075+042675999GA2075+060965999GD13991+0426759GD23991+0609659GE19MSL   +99999+99999GF199999999999042671999999KA1060M+00331KA2060N+00061MA1101795101555MD1890209+9999REMMET13201/07/20 06:52:02 METAR KDCA 071152Z 12004KT 10SM BKN140 BKN200 02/M02 A3006 RMK AO2 PRESFR SLP179 T00221017 10033 20006 58020 (BGS)
0195724050137432020010712004+38850-077033FM-12+002099999V0201201N002119999999N016000199+00221-00171101791ADDGE19MSL   +99999+99999GF106991999999999999999999KA1240M+01331KA2240N+00061MA1999999101571MD1810201+9999REMSYN08072405 32966 61204 10022 21017 30157 40179 58020 91152 333 10133 20006 555 90712=
0274724050137432020010712527+38847-077035FM-15+0020KDCA V0302205N002152200059N0160935N5+00175-00225101845ADDAA101000095GA1025+042675999GA2045+076205999GD11991+0426759GD22991+0762059GE19AGL   +99999+99999GF104995999999042671999999MA1101865101625REMMET10701/07/20 07:52:02 METAR KDCA 071252Z 22004KT 10SM FEW140 SCT250 02/M02 A3008 RMK AO2 SLP184 T00171022 (BGS)EQDD01      0ADE726
0293724050137432020010713527+38847-077035FM-15+0020KDCA V0309999C00005054865MN0160935N5+00335-00445101885ADDAA101000095GA1025+030485999GA2075+054865999GA3075+076205999GD11991+0304859GD23991+0548659GD33991+0762059GE19MSL   +99999+99999GF199999999999030481999999MA1101905101665REMMET11401/07/20 08:52:02 METAR KDCA 071352Z 00000KT 10SM FEW100 BKN180 BKN250 03/M04 A3009 RMK AO2 SLP188 T00331044 (BGS)
0275724050137432020010714527+38847-077035FM-15+0020KDCA V0309999C00005076205MN0160935N5+00565-00335101825ADDAA101000095GA1045+036585999GA2075+076205999GD12991+0365859GD23991+0762059GE19MSL   +99999+99999GF199999999999036581999999MA1101835101595MD1090039+9999REMMET11301/07/20 09:52:02 METAR KDCA 071452Z 00000KT 10SM SCT120 BKN250 06/M03 A3007 RMK AO2 SLP182 T00561033 50003 (BGS)
0153724050137432020010715004+38850-077033FM-12+002099999V0209999C000019999999N016000199+00561-00331101821ADDGE19MSL   +99999+99999GF106991999999999999999999MA1999999101611MD1990031+9999REMSYN06472405 32966 60000 10056 21033 30161 40182 50003 91452 555 90715=
0255724050137432020010715527+38847-077035FM-15+0020KDCA V0309999C00005076205MN0160935N5+00725-00565101655ADDAA101000095GA1025+036585999GA2075+076205999GD11991+0365859GD23991+0762059GE19MSL   +99999+99999GF199999999999036581999999MA1101665101425REMMET10701/07/20 10:52:02 METAR KDCA 071552Z 00000KT 10SM FEW120 BKN250 07/M06 A3002 RMK AO2 SLP165 T00721056 (BGS)
0229724050137432020010716527+38847-077035FM-15+0020KDCA V0301005N00465027435MN0160935N5+00785-00505101435ADDAA101000095GA1085+027435999GD14991+0274359GE19MSL   +99999+99999GF199999999999027431999999MA1101465101225REMMET11201/07/20 11:52:02 METAR KDCA 071652Z 10009KT 10SM OVC090 08/M05 A2996 RMK AO2 SLP143 VIRGA ALQDS T00781050 (BGS)
0366724050137432020010717527+38847-077035FM-15+0020KDCA V0309999V00315011285MN0160935N5+00785-00285101305ADDAA101000025AA206000021AU110020015AW1615GA1085+011285999GD14991+0112859GE19MSL   +99999+99999GF199999999999011281999999KA1060M+00831KA2060N+00111MA1101325101085MD1690519+9999MW1615REMMET14001/07/20 12:52:02 METAR KDCA 071752Z VRB06KT 10SM -RA OVC037 08/M03 A2992 RMK AO2 RAB37 SLP130 P0000 60000 T00781028 10083 20011 56051 (BGS)EQDQ01  00002PRCP06Q02  00008PRCP06
0240724050137432020010718004+38850-077033FM-12+002099999V0209999N003119999999N016000199+00781-00281101301ADDAA106000021GA1999+012501999GE19MSL   +99999+99999GF108991999999012501999999KA1120M+00831KA2120N+00111MA1999999101101MD1610511+9999MW1611REMSYN09272405 11666 8//06 10078 21028 30110 40130 56051 69901 761// 91752 333 10083 20011 555 90718=
0279724050137432020010718267+38847-077035FM-16+0020KDCA V0301805N00315011285MN0080475N5+00615+00115999999ADDAA101000021AU110020015AW1615GA1025+008845999GA2085+011285999GD11991+0088459GD24991+0112859GE19MSL   +99999+99999GF199999999999008841999999MA1101225100985MW1615REMMET10801/07/20 13:26:02 SPECI KDCA 071826Z 18006KT 5SM -RA FEW029 OVC037 06/01 A2989 RMK AO2 P0000 T00610011 (BGS)
